:020000040800F2
:1000000048170020D9000008C1070008350400087F
:1000100000000000000000000000000000000000E0
:10002000000000000000000000000000810800083F
:100030000000000000000000C3070008830800085B
:10004000EB000008EB000008EB000008EB000008E4
:10005000EB000008EB000008EB000008EB000008D4
:10006000EB000008EB000008EB000008EB000008C4
:10007000EB000008EB000008EB000008EB000008B4
:10008000EB000008EB000008EB000008EB000008A4
:10009000EB000008EB000008EB000008EB00000894
:1000A000EB000008EB000008EB0000089D080008CA
:1000B000CD080008EB000008EB0000080348854667
:1000C00000F078F800480047811000084817002029
:1000D00080F30888704700000448804704480047C0
:1000E000FEE7FEE7FEE7FEE7FEE7FEE78D08000815
:1000F000BD00000830B50B46014600202022012437
:1001000009E00D46D5409D4205D31D469540491B4B
:100110002546954040191546521E002DF1DC30BD94
:1001200003460B439B0703D009E008C9121F08C010
:10013000042AFAD203E00B780370401C491C521EBB
:10014000F9D27047D2B201E00270401C491EFBD2C6
:1001500070470022F6E710B513460A4604461946D2
:10016000FFF7F0FF204610BD30B505462A460B4686
:1001700010781C78521C5B1C002801D0A042F7D0DC
:10018000002C03D0002802D06D1CEFE7284630BDBC
:10019000421C0178401C0029FBD1801A70470321C2
:1001A000001D401E037812021A43491EF9D510465D
:1001B00070470000064C0125064E05E0E36807CCB9
:1001C0002B430C3C98471034B442F7D3FFF77AFF27
:1001D00084120008A412000803494A6901231B0481
:1001E000184302434A61704700200240054A5069A3
:1001F000FF23F9339843C900014303480143516188
:1002000070470000002002400200010030B505499F
:100210004C6901252C434C610260BFF36F8F436032
:1002200030BD00000020024030B50B4C0023626955
:100230000125AD042A436261EFF3108272B620C932
:100240005B1C20C0DBB2402BF9D32069C003FCD477
:1002500082F3108830BD000000200240F8B505464A
:1002600000F0CCF8471901263604114C03E000F0E9
:10027000C5F8B84214D220693042F8D121690D483E
:1002800001400D48206103D00C4841600120F8BDB9
:1002900000F0B4F8451905E000F0B0F8A84201D329
:1002A0000320F8BD20694003F6D40020F8BD00000B
:1002B00000200240FAC30000FBC300001800002029
:1002C00002480169022291430161704700E000E0A9
:1002D000F8B51F4E044630780F4601280AD0012099
:1002E0003070002070607D20C000FFF7B7FF00284D
:1002F00002D029E00220F8BD042161602268042AAE
:1003000003D0491F3960A56814E00846FFF764FF71
:100310007D20C000FFF7A2FF16E029466068FFF7C6
:1003200065FF7D20C000FFF799FF002801D03D60E8
:1003300005E06D1CE268A1688918A942EDD805495D
:100340004A6902239A434A6100213170F8BD0000D6
:100350001800002000200240054901204A69C30717
:100360001A434A614969002900DA002070470000F9
:1003700000200240F0B51FB4144C06462078154604
:1003800001280AD00120207000277D20C00067606E
:10039000FFF764FF002803D010E0022005B0F0BD95
:1003A000012E0DD029460198FFF73EFF7D20C000A9
:1003B000FFF754FF06494A69B2434A612770EDE7E7
:1003C0002A46039B0198FFF721FFEFE71800002062
:1003D00000200240064900204A69002A07DA054A3F
:1003E0008A60054A8A604969002900DA012070475D
:1003F0000020024023016745AB89EFCD014800682A
:10040000704700000400002002480168491C016098
:1004100070470000040000200548044941610021A4
:100420008161052101610721016170477F3E000064
:1004300000E000E0FEE7F0B500244CE00123A3401B
:100440001A4047D04B68012B01D0022B0FD18E6888
:100450008568134653435F00DF19BD4373431D4353
:100460008560CB684568534395431D4345600F69DC
:10047000C668134653435D005D19AE435F433E4378
:10048000C6604E68022E1FD1FF2A0ED817464A6951
:10049000066A94461A467A437A431701BF1ABE4346
:1004A00067467A43164306620EE0160A32467243E6
:1004B0004F6972437243BC461601B71A466ABE437F
:1004C00067467A43164346624A6806685343AE431A
:1004D0001E430660641C0A681346E340AED1002048
:1004E000F0BD000008B504494A6B02434A63496BFA
:1004F0000140009108BD00000010024010B57D21B0
:10050000C900FFF7F7FD0449401E486100208861DB
:100510000520086110BD000000E000E010B50446B1
:1005200000F070F9206000F04DF9606000F05AF9B9
:10053000A06010BD70B501260024194DF6030328F4
:1005400002D00C2815D029E000F030F815494018E9
:1005500004D001281BD0022803D113E000F052F987
:1005600005E000F04FF900F02DF900F03BF90446EA
:1005700014E000F01BF80C494018EFD0042806D016
:100580000828EED100F022F8012806D006E000F09D
:1005900015F8012802D12C4600E03446204670BDF3
:1005A0000024F400FFFFFCFFFCFFF3FF0249496950
:1005B00001400004084370474010024002480068B0
:1005C0004005C00F70470000001002400248C0699B
:1005D0008007C00F70470000401002400248C0680A
:1005E0007021084070470000001002400248C068B7
:1005F0008007800F70470000001002400248C0686A
:100600004004400E704700000010024003494A6950
:10061000030C9A4380B202434A6170474010024083
:100620000149086070470000080000204168092265
:10063000D2029143416081682A22914381607047D0
:10064000144B00221449984208D101200B6B8003FF
:1006500003430B630B6B83430B6318E00F4B984210
:1006600002D1012040040AE00D4B984202D1012042
:10067000800404E00B4B984208D10120C004CB6AEF
:100680000343CB62CB6A8343CB6200E00122104676
:100690007047000000380140001002400044004054
:1006A00000480040004C0040FEB5044600680D467E
:1006B0000127384064D12969A868EA690843696953
:1006C0001143084321682F4A114008432060E8681D
:1006D000616803221203914301436160A969A06824
:1006E000121190430843A0602748844201D103209F
:1006F00003E02648844203D10C20FFF71BFF09E0EA
:100700002348844202D02348844232D16846FFF70E
:1007100005FF029800282CD06E68002E29D0296889
:100720000027EA690B2924D80123DB039A4213D15D
:1007300009068A0D18498958FFF7DCFC400071084A
:1007400040183146FFF7D6FC81B21448084009072B
:10075000490F0143E1600CE009068A0D0E498958F2
:10076000FFF7C8FC710840183146FFF7C3FC80B2A0
:10077000E0602888E16A80B2090909010143E16269
:100780003846FEBDF369FFEF0038014000440040E9
:1007900000480040004C0040F4110008F0FF000049
:1007A00008B506490A690092421C00D0401C0A693B
:1007B000D20300D5401E0028F9D108BD00E000E0BA
:1007C000FEE77047054989688A093C210A400A40CA
:1007D0000349895CC906C90EC84070470010024031
:1007E0002412000805498968054A4904490F89000F
:1007F000515CC906C90EC840704700000010024095
:100800006412000810B50B49886838221040082887
:100810000AD010280AD0086801218004400F8140C6
:100820000548FFF767FC10BD044810BD00F008F84C
:1008300010BD0000001002400024F40000127A00F5
:1008400070B5FFF7D3FE0C4C022802D0032800D16C
:1008500064100A48C068450F6D1CFFF7BFFE06090B
:10086000761CFFF7CBFE60433146FFF743FC294679
:10087000FFF740FC70BD00000024F40000100240AF
:10088000704700B5FFF7C0FD00BD00000120024920
:10089000C00688607047000000ED00E038B50A4CE3
:1008A000E0698006C00F05D020688006C00F01D027
:1008B000606A38BD1B2000F033F8E0690090400703
:1008C000F7D50420206238BD0038014038B5104CFF
:1008D000E0698006C00F11D020688006C00F0DD0DF
:1008E000606A0D490B4B0A889854521C90B20B4A0F
:1008F0000880904201D30020088038BD1C2000F001
:100900000FF8E06900904007F7D50420206238BD59
:1009100000440040340000200C0000209808000033
:10092000002809DBC106C90E012088400349086080
:10093000BFF34F8FBFF36F8F7047000080E100E07F
:10094000002805DBC106C90E012088400149086066
:100950007047000000E100E08307FF22DB0E9A40B1
:100960008907090E9940002808DB830809489B0085
:100970001B18186890430843186070470007000F61
:100980000838830804489B001B18D8699043084323
:10099000D861704700E400E000ED00E002E008C824
:1009A000121F08C1002AFAD170477047002001E0E9
:1009B00001C1121F002AFBD17047000004480549FD
:1009C0004068884201D00120704700207047000035
:1009D000CC080020AAAAAAAA70B5074D0024601965
:1009E00000F0C4F9FF2801D0012070BD641CE4B2FE
:1009F000202CF4D3002070BD0038000804480549BD
:100A00004068884201D101207047002070470000F3
:100A1000CC0800205555555510B504490448FFF73A
:100A200098FB04490020088010BD000098080000D1
:100A3000340000200C00002010B53B21034800F0DA
:100A400077F9002000F00EF810BD00000028000823
:100A500000487047002800080148008870470000DF
:100A60000C00002010B50549012804D00448486056
:100A700000F050F810BD0248C043F8E7CC08002051
:100A8000AAAAAAAA004870473400002010B500F0B6
:100A90005BFA10BDF8B500240E460546002A26D0A4
:100AA000500702D0D208D2000832D7081DE0E0007B
:100AB000315C8219507853790002084391781B0207
:100AC00009040143D0780006084311790B4391795A
:100AD000D2790904194313060B4300210A184B412C
:100AE000284600F045F9641C0835A742DFD8F8BD58
:100AF00070B5064D064E0024601900F037F93055E8
:100B0000641CA4B2102CF7D370BD000000180008BC
:100B1000CC080020F8B511480024264605460121DE
:100B200000F006F9F60816E00D48E200815C1218A4
:100B300050780002C317084391780904CF17014386
:100B4000D0781F430206D3170A433B43284600F0E0
:100B50000FF9641C0835A642E6D8F8BD0018000855
:100B6000CC0800201FB504460020009001900290A0
:100B70000AA2039007CA6B4607C36846FFF708FB43
:100B800080B2220A69460A54401C80B20C54401CB0
:100B900081B2684600F090F81FBD00007265717563
:100BA0006573745F64617461000000001FB50446E2
:100BB00000200090019002900390032207A1684654
:100BC000FFF7AEFA6846FFF7E3FA81B2684644548D
:100BD000491C89B200F070F81FBD000072657400F6
:100BE0001FB500200090019002900390062206A1FC
:100BF0006846FFF795FA6846FFF7CAFA81B2684679
:100C000000F05AF81FBD0000757064617465000043
:100C1000F8B5224D06462A7828468088204C022ABC
:100C200014D00521032A1DD0042A0ED12970FFF704
:100C30000FFFA96800F0C2F9E96881422AD10120BA
:100C4000FFF7B4FF0120FFF70DFFF8BD0321401CA3
:100C5000297080B2FFF786FFA888608020888019FD
:100C60002080F8BD678800220223B84201D02B7093
:100C700022802088801980B2FF26F5362080B0427D
:100C800004D3287C401C287422802B70287C0528E3
:100C9000E7D929700020FFF789FFF8BDDC080020A4
:100CA0001400002010B5FFF79BFF024901200870D7
:100CB00010BD0000DC08002070B50C460A46014655
:100CC00005480546FFF72CFA0448214644602846AB
:100CD000FFF7DCFE70BD00002A110020F0080020A4
:100CE00010B5FFF7B9FE0C4C2060FFF7CBFE0146B4
:100CF0002046083022680446FFF712FA00F0E4F9B3
:100D000006492046FFF725FA1E210548FFF721FA7C
:100D1000FFF782FE10BD0000F0080020320800003E
:100D20002A11002010B500F093F8FFF7C9FA10BDA2
:100D300030B50D4685B0002104911F21C906401829
:100D4000C40AFFF747FB0220009004A90395029410
:100D50006846FFF7BDFA002804D0FFF7FDFA00202F
:100D600005B030BDFFF7F8FA0120F9E700787047C9
:100D700070B516461C460546FFF72CFB3246234647
:100D800029460120FFF7F6FA002803D0FFF7E4FA1E
:100D9000002070BDFFF7E0FA012070BD38B51248A1
:100DA000012102680A43026000680F4C084000906D
:100DB0000807403CE16B0143E163E16B0322014022
:100DC0000A480091016852021143016000F010F8D6
:100DD000FFF722FB616B202001436163616B0140DF
:100DE000009100F03FF838BD401002400000014083
:100DF00010B5154801688215114301600168490565
:100E0000C90FFBD081680F22120291438160816873
:100E1000C908C9008160382281681142FCD181680B
:100E20000722120391438160084C2046FFF766FBBE
:100E30002046FFF7F5FB03208004FFF7E7FB0320C4
:100E40000004FFF7E3FB10BD001002400024F40093
:100E500010B51C20FFF764FD0148FFF7F1FB10BD42
:100E600000440040F0B58FB0202106A8FFF771F9CB
:100E700018216846FFF76DF931480121C26B49041A
:100E80000A43C263C06B08400E900120FFF72AFBA3
:100E900001250420002405950090022605200294D7
:100EA00003946946019604940007FFF7C4FA0827E3
:100EB0000520009702940394694600070196059562
:100EC0000494FFF7B8FA00211C20FFF745FD1C2011
:100ED000FFF736FDE120400207900894069409943C
:100EE0000A940C940D940C20164C0B9006A92046E5
:100EF000FFF7DAFBA068C000C008A060A068072167
:100F000049068843A0602068E104884320602046A9
:100F1000FFF78CFB206828432060E0698002C00F47
:100F2000FBD0E0694002C00FF7D027622068202183
:100F300008432060A0682843A0600FB0F0BD000007
:100F4000001002400044004010B50022084B08E0A9
:100F5000DC692406E40FFBD004789C62521C92B238
:100F6000401C8A42F4D3D8694006C00FFBD010BDA4
:100F70000044004070B50F4C002520780E4E062826
:100F800006D0052812D1FFF739FD00280FD007E061
:100F9000FFF714FD00280AD0FFF71EFD002806D039
:100FA000FFF7C0FE72B6304600F036F870BD25700F
:100FB00070BD0000DC0800200028000810B50022E9
:100FC000D243074B07E0047854402406A40D1C5973
:100FD000120A6240401C491EF5D2D04310BD0000E9
:100FE0004811002030B50A4B0A4C00210846002267
:100FF000C50702D04008584000E04008521C082AAB
:10100000F6D38A00491CA050FF29EFD930BD00005B
:101010002083B8ED4811002010B50168074A11403F
:1010200001225207914207D14168054C21600068B6
:10103000FFF74EF82068804710BD00000000FE2F2B
:101040001000002072B6BFF34F8F04490248C860F9
:10105000BFF34F8F00BFFDE70400FA0500ED00E08D
:1010600070B5FFF7F9FC040006D0044D28888442CF
:1010700001D1FFF735FE2C8070BD0000000000207C
:1010800000252C46FFF78AFEFFF732FDFFF70AFE28
:101090000C4E06271420FFF783FBFFF7E1FF142017
:1010A000FFF7B6FD641CA4B2FA2C00D300243078FC
:1010B000012804D16D1CADB21E2D00D33770FFF78F
:1010C00059FFE7E7DC080020F8B5274824A10546CA
:1010D000FFF74AF8002802D0FFF7B4FFF8BD23A1BC
:1010E0002846FFF741F804001CD0A07AE17A0002FC
:1010F000401885B220460C300746FFF750F800BA7A
:10110000060AF8783602064310342046FFF747F8FF
:1011100000BA020AE078120202433146284600F083
:101120002FF8F8BD14A12846FFF71EF80400F8D0E8
:10113000207961790002401885B2A01DFFF72FF8D1
:1011400000BA010A607A09020143A07AE27A000239
:10115000801882B223460C33284600F01FF8F8BDF1
:101160007265626F6F740000F8080020757064612A
:1011700074655F61636B000064617461000000006E
:1011800010B5054B5880DA60022099601870FFF79F
:1011900053FCFFF727FF10BDDC080020FFB5134C00
:1011A0000546A08881B0401C1E460F46A84208D1C3
:1011B00018460399FFF702FFB84204D0207C401C78
:1011C000207405B0F0BD002020740949E8024018E1
:1011D0003146039AFFF75EFCA088401C80B2A080D5
:1011E00061888842EDD304202070EAE7DC08002003
:1011F00000200008010000000200000004000000C0
:1012000006000000080000000A0000000C000000BA
:1012100010000000200000004000000080000000DE
:1012200000010000000000000000000000000000BD
:1012300000000000000000000000000000000000AE
:101240000000000001000000020000000300000098
:101250000400000006000000070000000800000075
:101260000900000000000000000000000000000075
:101270000000000001000000020000000300000068
:1012800004000000A4120008000000201800000064
:101290009C090008BC12000818000020301700004C
:1012A000AC09000800000000000000000024F40069
:0C12B00000000000000000000000000032
:04000005080000BD32
:00000001FF
