:020000040000FA
:10000000C80A0020DD000000F7000000050700001E
:1000100000000000000000000000000000000000E0
:10002000000000000000000000000000FB000000D5
:100030000000000000000000FD00000015080000A6
:10004000110700001B070000250700002F07000014
:1000500039070000430700004D0700005707000064
:100060000101000001010000610700006B070000B2
:10007000750700007F070000890700009307000054
:100080009D07000001010000A7070000B107000064
:10009000BB070000C5070000CF07000001010000FA
:1000A000D907000001010000E3070000ED07000090
:1000B000F707000001010000010800000B08000024
:1000C0000348854600F088F800480047FD0100001D
:1000D000C80A002080F308887047000009480A4ACF
:1000E000002100A1814200D902440848026008486A
:1000F000804708480047FEE7FEE7FEE7FEE7FEE729
:10010000FEE70000000000200000000008ED00E015
:10011000A1090000C100000030B50B4601460020D7
:100120002022012409E00D46D5409D4205D31D46FD
:100130009540491B2546954040191546521E002DF5
:10014000F1DC30BD03460B439B0703D009E008C92F
:10015000121F08C0042AFAD203E00B780370401C77
:10016000491C521EF9D27047D2B201E00270401C05
:10017000491EFBD270470022F6E710B513460A4627
:1001800004461946FFF7F0FF204610BD30B505467E
:100190002A460B4610781C78521C5B1C002801D0A4
:1001A000A042F7D0002C03D0002802D06D1CEFE74E
:1001B000284630BD421C0178401C0029FBD1801A22
:1001C00070470321001D401E037812021A43491E86
:1001D000F9D5104670470000064C0125064E05E093
:1001E000E36807CC2B430C3C98471034B442F7D358
:1001F000FFF76AFFEC1200000C13000010B500F0CE
:10020000CFFB00F09DFF002010BD000002480068F9
:10021000002800D0004770470C00002010B50120D6
:1002200000F05AF8012804D100F010F8012000F085
:100230002BF8002000F050F8012805D1002000F034
:1002400005F8002000F020F810BD000010B50446AD
:1002500001200A4B0A490B4A002C06D0012C0BD175
:10026000CB62CA62886AA04304E0CB62CA62886A31
:10027000022290438862002010BD00005A5A0000FC
:1002800000000240A5A5000030B5054601200F4C36
:100290000F49104B6022002D0DD0012D0AD1CC62E8
:1002A000CB62086A4006C00F8301086A9043184376
:1002B0000862002030BDCC62CB62086A0B6A8006FF
:1002C000C00F4001934303430B62F2E75A5A000008
:1002D00000000240A5A50000024600200549002AB2
:1002E00004D0012A05D1486AC00701E0486A8007A6
:1002F000C00F704700000240F7B58AB00C460646B2
:100300000025FF272021684609970895FFF733FF4E
:100310002848012C02460CD0022C0AD0042C08D00C
:10032000062C06D0082C04D00C2C02D004200DB0D2
:10033000F0BD214B1E60016A01235B0299430C9BB7
:10034000DB079B0D1943016269461C4EAB00F65852
:100350006D1C6643CE50082DF7D30C26184B194D53
:10036000082C0BD00C2C0FD0C362C562046AB443B6
:1003700004620024FF23A600099310E0C362C56253
:10038000046AB443241DF3E70197F7E7099D6D1E46
:1003900009950DD30A4BC3620A4BC3629751935917
:1003A0008F59BB42F2D1641C082CE3D30898BEE7F6
:1003B0000720BCE7000002400C000020CC12000027
:1003C0005A5A0000A5A50000F8B5FF2225490027CC
:1003D0000092884201D90420F8BD234903E0009B24
:1003E0005C1E00943CD30B6ADB06F8D41F4B204CF8
:1003F00000920AE0009E761E009631D3CB62CC625A
:100400000D6AAD08AD00AD1C0D620D6AAD07AD0FF4
:10041000022DEFD1009208E0009E761E00961FD3B9
:10042000CB62CC620025ED430D630D6B6D1CF3D1E7
:100430000570009203E00098461E009610D3086AEB
:10044000C006F8D4009206E00098421E009207D33E
:10045000CB62CC620D63086B0028F5D13846F8BD3D
:100460000920F8BDFFFF0000000002405A5A0000BA
:10047000A5A50000F8B58C46FF2327490027009367
:10048000884201D90420F8BD244A03E000994C1E9B
:1004900000943ED3116AC906F8D4214C214D009333
:1004A0000AE0009E711E009133D3D462D562166AB1
:1004B000B608B600761C1662166AB607B60F012E8D
:1004C000EFD1009308E0009E711E009121D3D46209
:1004D000D5620026F6431663166B761CF3D161468F
:1004E0000170009303E00098411E009111D3106A3F
:1004F000C006F8D40021009306E00098431E009344
:1005000007D3D462D5621163106B0028F5D1384649
:10051000F8BD0920F8BD0000FFFF00000000024008
:100520005A5A0000A5A50000F8B58C46FF232749BC
:1005300000270093884201D90420F8BD244A03E033
:1005400000994C1E00943ED3116AC906F8D4214C80
:10055000214D00930AE0009E711E009133D3D462B6
:10056000D562166AB608B600761C1662166AB60719
:10057000B60F012EEFD1009308E0009E711E00918E
:1005800021D3D462D5620026F6431663166B761C1F
:10059000F3D161460160009303E00098411E009191
:1005A00011D3106AC006F8D40021009306E0009829
:1005B000431E009307D3D462D5621163106B0028E9
:1005C000F5D13846F8BD0920F8BD0000FFFF000056
:1005D000000002405A5A0000A5A5000030B5224B89
:1005E000C318DD6801248C40A543DD60890008182C
:1005F0001E4900254018056010780128186824D08D
:10060000A043186050780028D86920D02043D861D2
:10061000907801281DD00228186A1DD0A0431862C6
:10062000586AA0435862D0780028D86A19D020436D
:10063000D8620F49886801231279DB03D2079843F7
:10064000120C10438860002030BD2043D9E7A0433E
:10065000DDE7186A2043E2E7A0431862586A2043A6
:10066000E0E7A043E4E70000000D0240000C024078
:10067000000F02408900081802494018026000205B
:1006800070470000000C02400248016902229143B9
:100690000161704700E000E001B5044908680A689C
:1006A000009B121A9A42FAD308BD000008000020ED
:1006B00002480168491C01607047000008000020E2
:1006C00010B50C487D21C9000068FFF725FD0A49D7
:1006D000401E88420CD80949486109480722C3696D
:1006E0001B021B0A4C042343C361002088610A617A
:1006F00010BD000000000020FFFFFF0000E000E050
:1007000004ED00E008B5002000900028FDD008BDF1
:1007100010B50020C046C04610BD10B50120C0462F
:10072000C04610BD10B50220C046C04610BD10B571
:100730000320C046C04610BD10B50020C046C046CC
:1007400010BD10B50020C046C04610BD10B5002039
:1007500000F042F910BD10B5012000F03DF910BDC8
:1007600010B50020C046C04610BD10B50120C046DF
:10077000C04610BD10B50020C046C04610BD10B523
:100780000120C046C04610BD10B50020C046C0467E
:1007900010BD10B50120C046C04610BD10B50220E6
:1007A000C046C04610BD10B50420C046C04610BDAE
:1007B00010B50520C046C04610BD10B50620C04685
:1007C000C04610BD10B50020C046C04610BD10B5D3
:1007D0000020C046C04610BD10B50020C046C0462F
:1007E00010BD10B50020C046C04610BD10B5012098
:1007F000C046C04610BD10B50020C046C04610BD62
:1008000010B50020FFF702FD10BD10B50020C04656
:10081000C04610BD00B5FFF74BFF00BD10B58AB054
:1008200000241422484904A8FFF78CFC4648001F06
:1008300000680990002001900290039043480288CC
:1008400069468A8142884A8182880A81C088C88034
:100850003E482030008888803D48016809064A0FDC
:100860003C49130000F004F905042A2C383B6800C9
:10087000C1686A4649059289490D914201D1089C97
:100880005AE0C1686A4649055289490D914201D131
:10089000079C51E0C1686A4649051289490D914299
:1008A00001D1069C48E0C1686A464905D288490DD5
:1008B000914201D1059C3FE0049C3DE00C463BE0A9
:1008C0006946898842699205920D9142694601D133
:1008D000CC8C31E08C8C2FE00124E4032CE0C26B43
:1008E000D243920724D169468989C2685205520DC4
:1008F000914201D108991BE069464989C2685205B5
:10090000520D914201D1079912E069460989C268E6
:100910005205520D914201D1069909E06946C988F4
:10092000C2685205520D914201D1059900E0049927
:10093000C26BD205140F4C4300680AB04005410F4A
:100940002046C84010BD0000B8120000000C100086
:10095000002000400048E80110B5FFF75FFF0349A1
:100960000968C904890FC84010BD0000002000407C
:1009700010B5044601230020044AA3400029116A4F
:1009800001D0194300E09943116210BD00200040DE
:1009900010B5FFF743FF0149086010BD00000020BB
:1009A00010B50B48408881050A48890D4269920AB2
:1009B00092020A434261064920390989C268490501
:1009C000490DD20AD2020A43C260FFF7E1FF10BD0F
:1009D000200C10000020004010B5164801690023CB
:1009E000CA071549002A10D04269520852004261D4
:1009F00000F038F8114C0A88A054521C90B2104AEA
:100A00000880904200D30B8010BD0120800702694E
:100A1000D207F9D0426952085200426100F014F83E
:100A2000084C4A88A054521C90B248800A28EBD344
:100A30004B8010BD00010040100000201C00002071
:100A40002602000042020020012080070068C0B298
:100A500070470000024800698007C00F704700001F
:100A60000001004001480068C0B27047000100402A
:100A700030B47446641E2578641CAB4200D21D4617
:100A8000635D5B00E31830BC18470000002805DBFD
:100A9000C106C90E01208840014908607047000066
:100AA00080E200E0002805DBC106C90E0120884075
:100AB000014908607047000000E100E08307FF2261
:100AC000DB0E9A408907090E9940002808DB83084D
:100AD00009489B001B18186890430843186070472A
:100AE0000007000F0838830804489B001B18D869CA
:100AF00090430843D861704700E400E000ED00E057
:100B000002E008C8121F08C1002AFAD170477047D6
:100B1000002001E001C1121F002AFBD17047000034
:100B2000044805494068884201D0012070470020F0
:100B3000704700004C020020AAAAAAAA70B500249F
:100B40000325ED02601900F091F9FF2801D0012082
:100B500070BD641CE4B2202CF4D3002070BD0000F2
:100B6000044805494068884201D1012070470020AF
:100B7000704700004C0200205555555510B50449EA
:100B80000448FFF7F8FA04490020088010BD00006F
:100B9000260200001C0000201000002010B50320D9
:100BA0007421C00200F054F9002000F00BF810BDD1
:100BB0000320C00270470000014800887047000011
:100BC0001000002010B50549012804D004484860F1
:100BD00000F042F810BD0248C043F8E74C02002084
:100BE000AAAAAAAA004870471C00002010B500F06D
:100BF000F9F910BDF8B500240E460546002A19D0B3
:100C0000900702D092089200121D970810E0A000F1
:100C1000315C82195078000208439178090401433D
:100C2000D07800060143284600F036F9641C2D1DDB
:100C3000A742ECD8F8BD000070B500240525054E8C
:100C4000AD02601900F012F93055641CA4B2102CEA
:100C5000F7D370BD4C02002070B50525AD0201210F
:100C6000284600F0F5F8054E0024315D601900F0CB
:100C7000FFF8641CA4B2102CF7D370BD4C02002006
:100C80001FB5044600200090019002900AA2039034
:100C900007CA6B4607C36846FFF78CFA80B2220A80
:100CA00069460A54401C80B20C54401C81B268460C
:100CB00000F092F81FBD0000726571756573745F76
:100CC00064617461000000001FB5044600200090BC
:100CD000019002900390032207A16846FFF732FAC1
:100CE0006846FFF767FA81B268464454491C89B2E6
:100CF00000F072F81FBD0000726574001FB500207F
:100D00000090019002900390062206A16846FFF72A
:100D100019FA6846FFF74EFA81B2684600F05CF8AF
:100D20001FBD00007570646174650000F8B5224D48
:100D300006462A7828468088204C022A14D00521AD
:100D4000032A1DD0042A0ED12970FFF731FFA968AC
:100D500000F08AF9E968814229D10120FFF7B4FF48
:100D60000120FFF72FFFF8BD0321401C297080B23E
:100D7000FFF786FFA8886080208880192080F8BD52
:100D8000678800220223B84201D02B70228020887D
:100D9000801980B20A4E2080B04204D3287C401CC7
:100DA000287422802B70287C0528E8D9297000201F
:100DB000FFF78AFFF8BD00005C0200201800002049
:100DC000DC05000010B5FFF799FF0249012008700B
:100DD00010BD00005C02002070B50C460A460146BA
:100DE00005480546FFF7AEF9044821464460284609
:100DF000FFF7FCFE70BD0000AA0400207002002076
:100E000010B5FFF7D9FE0C4C2060FFF7EBFE014652
:100E10002046083022680446FFF794F900F0B4F940
:100E200006492046FFF7A7F91E210548FFF7A3F959
:100E3000FFF7A4FE10BD0000700200203202000087
:100E4000AA04002010B500F047F8FFF71DFC10BD04
:100E500070B50D460646002404E060028019FFF7D5
:100E6000B3FA641CAC42F8D3012070BD007870471F
:100E700070B5044607480D46844209D82046FFF75E
:100E8000F9FA002804D12078A84201D1012070BDD0
:100E9000002070BDFFFF000070B504460D468007BE
:100EA00009D12046FFF740FB002804D12068A84262
:100EB00001D1012070BD002070BD000010B50122DD
:100EC00011460448FFF718FAFFF7FAFB00F028F87C
:100ED00062B610BD1D0200001CB50521684600F079
:100EE000F1F801211C20FFF743FD0124684604703E
:100EF0006A4602210020FFF771FB684604706A46CB
:100F000003210020FFF76AFB044841681022914347
:100F100041604168A14341601CBD000000010040E8
:100F20007CB50521684600F0CDF801211C20FFF7B3
:100F30001FFD0021684601706A4602210020FFF76C
:100F40004DFB012202210020FFF794FB012568469A
:100F500005706A4603210020FFF740FB01220321B0
:100F60000020FFF787FB01210846FFF701FD1C4C1D
:100F70006068C0218843403060606068090288432F
:100F8000606007263046FFF781FD03213046FFF7FA
:100F900095FD3046FFF786FD606861150843606087
:100FA000FFF7DAFC61688905C90F16D008214B22CA
:100FB000D2015143FFF7B0F8A06160690221884374
:100FC000606160694008400060616068102108430A
:100FD00060606068284360607CBD1021E7E7000026
:100FE0000001004030B50C460546002304E0E85CF3
:100FF00000F006F85B1C9BB2A342F8D330BD0000A2
:1010000000B507490A68120A120202430A60FFF794
:1010100021FD0028FBD0486902229043486100BDB1
:101020000001004070B50F4C032620780025F60221
:10103000062806D0052812D1FFF792FD00280FD010
:1010400007E0FFF76DFD00280AD0FFF777FD0028C5
:1010500006D0FFF7F7FE72B6304600F03DF870BDDF
:10106000257070BD5C02002010B50022D243074BF2
:1010700007E0047854402406A40D1C59120A62406B
:10108000401C491EF5D2D04310BD0000C80400200A
:1010900030B50A4B0A4C002108460022C50702D091
:1010A0004008584000E04008521C082AF6D38A0045
:1010B000491CA050FF29EFD930BD00002083B8EDB6
:1010C000C8040020002805D00022491E02D3027067
:1010D000401CFAE77047000010B50168074A11404C
:1010E00001225207914207D14168054C21600068F6
:1010F000FEF7F0FF2068804710BD00000000FE2FC3
:101100001400002072B6BFF34F8F04490248C86034
:10111000BFF34F8F00BFFDE70400FA0500ED00E0CC
:1011200070B5FFF749FD040006D0044D28888442BD
:1011300001D1FFF765FE2C8070BD00000400002087
:1011400000252C46FFF7BAFEFFF776FDFFF73AFEC3
:101150000C4E06271420FFF79FFAFFF7E1FF14203B
:10116000FFF7E4FD641CA4B2FA2C00D3002430780D
:10117000012804D16D1CADB21E2D00D33770FFF7CE
:1011800051FFE7E75C020020F8B5274824A1054697
:10119000FEF7FCFF002802D0FFF7B4FFF8BD23A143
:1011A0002846FEF7F3FF04001CD0A07AE17A000283
:1011B000401885B220460C300746FFF702F800BA07
:1011C000060AF8783602064310342046FEF7F9FF87
:1011D00000BA020AE078120202433146284600F0C3
:1011E0002FF8F8BD14A12846FEF7D0FF0400F8D070
:1011F000207961790002401885B2A01DFEF7E1FF59
:1012000000BA010A607A09020143A07AE27A000278
:10121000801882B223460C33284600F01FF8F8BD30
:101220007265626F6F7400007802002075706461EF
:1012300074655F61636B00006461746100000000AD
:1012400010B5054B5880DA60022099601870FFF7DE
:10125000A5FCFFF71DFF10BD5C020020FFB5144C7C
:101260000546A08881B0401C1E460F46A84208D102
:1012700018460399FFF7F8FEB84204D0207C401CC2
:10128000207405B0F0BD002020740B2168024902D3
:1012900040183146039AFFF7ADFCA088401C80B28D
:1012A000A08061888842ECD304202070E9E7000028
:1012B0005C0200200080009600093D0000127A00C8
:1012C0000024F4004086510100366E012000000029
:1012D000170000001B00000050460000E022020042
:1012E00018000000F0000000E80300000C130000EC
:1012F000000000201C000000000B0000281300006C
:101300001C000020AC0A0000100B000000093D008A
:1013100000000000000000000000000000000000CD
:081320000000000000000000C5
:04000005000000C136
:00000001FF
