:020000040800F2
:1000000050170020D9000008AD070008350400088B
:1000100000000000000000000000000000000000E0
:100020000000000000000000000000006D08000853
:100030000000000000000000AF0700086F08000883
:10004000EB000008EB000008EB000008EB000008E4
:10005000EB000008EB000008EB000008EB000008D4
:10006000EB000008EB000008EB000008EB000008C4
:10007000EB000008EB000008EB000008EB000008B4
:10008000EB000008EB000008EB000008EB000008A4
:10009000EB000008EB000008EB000008EB00000894
:1000A000EB000008EB000008EB00000889080008DE
:1000B000B9080008EB000008EB000008034885467B
:1000C00000F078F800480047A114000850170020FD
:1000D00080F30888704700000448804704480047C0
:1000E000FEE7FEE7FEE7FEE7FEE7FEE77908000829
:1000F000BD00000830B50B46014600202022012437
:1001000009E00D46D5409D4205D31D469540491B4B
:100110002546954040191546521E002DF1DC30BD94
:1001200003460B439B0703D009E008C9121F08C010
:10013000042AFAD203E00B780370401C491C521EBB
:10014000F9D27047D2B201E00270401C491EFBD2C6
:1001500070470022F6E710B513460A4604461946D2
:10016000FFF7F0FF204610BD30B505462A460B4686
:1001700010781C78521C5B1C002801D0A042F7D0DC
:10018000002C03D0002802D06D1CEFE7284630BDBC
:10019000421C0178401C0029FBD1801A70470321C2
:1001A000001D401E037812021A43491EF9D510465D
:1001B00070470000064C0125064E05E0E36807CCB9
:1001C0002B430C3C98471034B442F7D3FFF77AFF27
:1001D000BC170008DC17000803494A6901231B0407
:1001E000184302434A61704700200240054A5069A3
:1001F000FF23F9339843C900014303480143516188
:1002000070470000002002400200010030B505499F
:100210004C6901252C434C610260BFF36F8F436032
:1002200030BD00000020024030B50B4C0023626955
:100230000125AD042A436261EFF3108272B620C932
:100240005B1C20C0DBB2402BF9D32069C003FCD477
:1002500082F3108830BD000000200240F8B505464A
:1002600000F0CCF8471901263604114C03E000F0E9
:10027000C5F8B84214D220693042F8D121690D483E
:1002800001400D48206103D00C4841600120F8BDB9
:1002900000F0B4F8451905E000F0B0F8A84201D329
:1002A0000320F8BD20694003F6D40020F8BD00000B
:1002B00000200240FAC30000FBC300001C00002025
:1002C00002480169022291430161704700E000E0A9
:1002D000F8B51F4E044630780F4601280AD0012099
:1002E0003070002070607D20C000FFF7B7FF00284D
:1002F00002D029E00220F8BD042161602268042AAE
:1003000003D0491F3960A56814E00846FFF764FF71
:100310007D20C000FFF7A2FF16E029466068FFF7C6
:1003200065FF7D20C000FFF799FF002801D03D60E8
:1003300005E06D1CE268A1688918A942EDD805495D
:100340004A6902239A434A6100213170F8BD0000D6
:100350001C00002000200240054901204A69C30713
:100360001A434A614969002900DA002070470000F9
:1003700000200240F0B51FB4144C06462078154604
:1003800001280AD00120207000277D20C00067606E
:10039000FFF764FF002803D010E0022005B0F0BD95
:1003A000012E0DD029460198FFF73EFF7D20C000A9
:1003B000FFF754FF06494A69B2434A612770EDE7E7
:1003C0002A46039B0198FFF721FFEFE71C0000205E
:1003D00000200240064900204A69002A07DA054A3F
:1003E0008A60054A8A604969002900DA012070475D
:1003F0000020024023016745AB89EFCD014800682A
:10040000704700000400002002480168491C016098
:1004100070470000040000200548044941610021A4
:100420008161052101610721016170477F3E000064
:1004300000E000E0FEE7F0B500244CE00123A3401B
:100440001A4047D04B68012B01D0022B0FD18E6888
:100450008568134653435F00DF19BD4373431D4353
:100460008560CB684568534395431D4345600F69DC
:10047000C668134653435D005D19AE435F433E4378
:10048000C6604E68022E1FD1FF2A0ED817464A6951
:10049000066A94461A467A437A431701BF1ABE4346
:1004A00067467A43164306620EE0160A32467243E6
:1004B0004F6972437243BC461601B71A466ABE437F
:1004C00067467A43164346624A6806685343AE431A
:1004D0001E430660641C0A681346E340AED1002048
:1004E000F0BD000008B504494A6B02434A63496BFA
:1004F0000140009108BD00000010024010B57D21B0
:10050000C900FFF7F7FD0449401E486100208861DB
:100510000520086110BD000000E000E010B50446B1
:1005200000F066F9206000F043F9606000F050F9D7
:10053000A06010BD70B501260024194DF6030328F4
:1005400002D00C2815D029E000F030F815494018E9
:1005500004D001281BD0022803D113E000F048F991
:1005600005E000F045F900F023F900F031F9044608
:1005700014E000F01BF80C494018EFD0042806D016
:100580000828EED100F022F8012806D006E000F09D
:1005900015F8012802D12C4600E03446204670BDF3
:1005A0000024F400FFFFFCFFFCFFF3FF0249496950
:1005B00001400004084370474010024002480068B0
:1005C0004005C00F70470000001002400248C0699B
:1005D0008007C00F70470000401002400248C0680A
:1005E0007021084070470000001002400248C068B7
:1005F0008007800F70470000001002400248C0686A
:100600004004400E7047000000100240014908609D
:10061000704700000800002041680922D20291437F
:10062000416081682A22914381607047144B002207
:100630001449984208D101200B6B800303430B63DC
:100640000B6B83430B6318E00F4B984202D10120E0
:1006500040040AE00D4B984202D10120800404E0DE
:100660000B4B984208D10120C004CB6A0343CB62F4
:10067000CB6A8343CB6200E0012210467047000042
:100680000038014000100240004400400048004093
:10069000004C0040FEB5044600680D460127384076
:1006A00064D12969A868EA69084369691143084364
:1006B00021682F4A114008432060E86861680322DE
:1006C0001203914301436160A969A068121190432C
:1006D0000843A0602748844201D1032003E0264854
:1006E000844203D10C20FFF725FF09E02348844210
:1006F00002D02348844232D16846FFF70FFF0298A8
:1007000000282CD06E68002E29D029680027EA69BD
:100710000B2924D80123DB039A4213D109068A0D41
:1007200018498958FFF7E6FC400071084018314627
:10073000FFF7E0FC81B2144808400907490F014364
:10074000E1600CE009068A0D0E498958FFF7D2FCDA
:10075000710840183146FFF7CDFC80B2E060288870
:10076000E16A80B2090909010143E1623846FEBD30
:10077000F369FFEF003801400044004000480040AA
:10078000004C0040E8160008F0FF000008B50649DC
:100790000A690092421C00D0401C0A69D20300D5AD
:1007A000401E0028F9D108BD00E000E0FEE77047D8
:1007B000054989688A093C210A400A400349895C45
:1007C000C906C90EC840704700100240181700083B
:1007D00005498968054A4904490F8900515CC906E1
:1007E000C90EC840704700000010024058170008AA
:1007F00010B50B4988683822104008280AD0102804
:100800000AD0086801218004400F81400548FFF7A5
:1008100071FC10BD044810BD00F008F810BD0000C8
:10082000001002400024F40000127A0070B5FFF7B7
:10083000DDFE0C4C022802D0032800D164100A48C7
:10084000C068450F6D1CFFF7C9FE0609761CFFF74F
:10085000D5FE60433146FFF74DFC2946FFF74AFCC1
:1008600070BD00000024F40000100240704700B585
:10087000FFF7CAFD00BD000001200249C0068860E4
:100880007047000000ED00E038B50A4CE0698006D2
:10089000C00F05D020688006C00F01D0606A38BD47
:1008A0001B2000F043F8E06900904007F7D50420D2
:1008B000206238BD0038014038B5104CE069800630
:1008C000C00F11D020688006C00F0DD0606A0D499E
:1008D0000B4B0A889854521C90B20B4A08809042E5
:1008E00001D30020088038BD1C2000F01FF8E0690B
:1008F00000904007F7D50420206238BD0044004036
:10090000380000200C000020980800000FB410B53B
:1009100003A9044B044A029800F056F810BC08BC26
:1009200004B018472514000810000020002809DB37
:10093000C106C90E0120884003490860BFF34F8FEC
:10094000BFF36F8F7047000080E100E0002805DBF7
:10095000C106C90E012088400149086070470000A7
:1009600000E100E08307FF22DB0E9A408907090EB1
:100970009940002808DB830809489B001B18186869
:1009800090430843186070470007000F0838830839
:1009900004489B001B18D86990430843D8617047EE
:1009A00000E400E000ED00E002E008C8121F08C10A
:1009B000002AFAD170477047002001E001C1121FE0
:1009C000002AFBD170470000FFB58DB0044600251A
:1009D00006E025280AD0109A0F999047641C6D1CD8
:1009E00020780028F5D1284611B0F0BD002701215C
:1009F000484A009700E00743641C23780846203BE0
:100A000098401042F7D120782E2817D104200743B0
:100A10006078641C2A280CD10E98641C02C80091CE
:100A20000E900BE000990A22514330394018641CA3
:100A300000902078014630390929F3D92078002820
:100A4000D1D0642808D0692806D075281ED0109A05
:100A50000F9990476D1C5BE00A200E99019001C927
:100A60000E91002802DA40422D2102E0390504D51A
:100A70002B216A461172012103E0F90704D02021DD
:100A8000F7E70BAE0B910DE00021FAE70A200E9973
:100A9000019001C90E91F7E70199FFF72BFB303167
:100AA000761E31700028F7D103A8801B20300190FA
:100AB000780701D5009801E0012000900199884253
:100AC00001DD401A00E000200027009006E002A8A7
:100AD000109AC05D0F9990476D1C7F1C0B98874240
:100AE000F5DB04E0109A30200F9990476D1C0099B7
:100AF000481E00900029F5DC05E03078109A761C3D
:100B00000F9990476D1C0199481E01900029F4DC53
:100B1000641C65E7092801000448054940688842CB
:100B200001D001207047002070470000D00800204D
:100B3000AAAAAAAA70B5074D0024601900F022FAEB
:100B4000FF2801D0012070BD641CE4B2202CF4D336
:100B5000002070BD004800080448054940688842EC
:100B600001D101207047002070470000D00800200C
:100B70005555555510B504490448FFF7EAFA04499C
:100B80000020088010BD00009808000038000020F8
:100B90000C00002010B53921034800F0D5F90020E1
:100BA00000F00EF810BD0000003800080048704743
:100BB0000038000801480088704700000C00002041
:100BC00010B50549012804D00448486000F050F8E9
:100BD00010BD0248C043F8E7D0080020AAAAAAAA7C
:100BE000004870473800002010B500F037FB10BDFA
:100BF000F8B500240E460546002A26D0500702D03C
:100C0000D208D2000832D7081DE0E000315C82191A
:100C1000507853790002084391781B02090401437C
:100C2000D0780006084311790B439179D2790904F1
:100C3000194313060B4300210A184B41284600F0C4
:100C4000A3F9641C0835A742DFD8F8BD70B5064D7E
:100C5000064E0024601900F095F93055641CA4B2CA
:100C6000102CF7D370BD000000280008D008002029
:100C7000F8B51148002426460546012100F064F924
:100C8000F60816E00D48E200815C12185078000268
:100C9000C317084391780904CF170143D0781F4345
:100CA0000206D3170A433B43284600F06DF9641C43
:100CB0000835A642E6D8F8BD00280008D008002074
:100CC0001FB5044600200090019002900AA20390F4
:100CD00007CA6B4607C36846FFF75AFA80B2220A72
:100CE00069460A54401C80B20C54401C81B26846CC
:100CF00000F0ECF81FBD0000726571756573745FDC
:100D000064617461000000001FB50446002000907B
:100D1000019002900390032207A16846FFF700FAB2
:100D20006846FFF735FA81B268464454491C89B2D7
:100D300000F0CCF81FBD0000726574001FB50020E4
:100D40000090019002900390062206A16846FFF7EA
:100D5000E7F96846FFF71CFA81B2684600F0B6F87A
:100D60001FBD00007570646174650000F8B52C4DFE
:100D700006462978284680882A4C022915D003295E
:100D800020D0042941D105202870FFF70FFFA96862
:100D900000F01AFBEA6801468A4237D10120FFF7CA
:100DA000B3FF0120FFF70CFF36E00321401C297040
:100DB00080B2FFF785FFA888608020888019208096
:100DC00019A02AE061880027884202D002202870FA
:100DD00027802088FF21801980B2F5312080884249
:100DE00008D313A0FFF792FD287C401C28742780AD
:100DF00002202870287C052807D913A0FFF786FD5C
:100E0000052028700020FFF77FFFF8BD19A0FFF72D
:100E10007DFD0020FFF778FF24A0FFF777FDF8BDE8
:100E2000E00800201800002073656E6400000000D8
:100E3000776169742064617461206F76657274698A
:100E40006D650D0A000000007061636B61676520CD
:100E500065727220636E74206F7665726C696D695D
:100E6000742C2073746F7020757064617465210D2B
:100E70000A0000006372633332206E6F7420657164
:100E800075616C2C2063726333325F76616C7565BB
:100E9000203D2025642C2066696C655F6372633396
:100EA00032203D2025640D0A0000000073656E6449
:100EB000207265740D0A000010B5FFF73FFF02496C
:100EC0000120087010BD0000E008002070B50C463D
:100ED0000A46014605480546FFF722F9044821461F
:100EE00044602846FFF780FE70BD00002E110020F0
:100EF000F408002010B5FFF75DFE0C4C2060FFF7F2
:100F00006FFE01462046083022680446FFF708F9C4
:100F100000F0F4FA06492046FFF71BF91E210548A8
:100F2000FFF717F9FFF726FE10BD0000F4080020B8
:100F3000320800002E11002010B500F013F900F067
:100F400093F8FFF7BDF910BD30B50D4685B000210F
:100F500004911F21C9064018C40AFFF73BFA02207A
:100F6000009004A9039502946846FFF7B1F90028A0
:100F700004D0FFF7F1F9002005B030BDFFF7ECF920
:100F80000120F9E70078704770B516461C46054603
:100F9000FFF720FA3246234629460120FFF7EAF9F7
:100FA000002803D0FFF7D8F9002070BDFFF7D4F96F
:100FB000012070BD38B51348012102680A43026060
:100FC0000068104C084000900807403CE16B01436A
:100FD000E163E16B032201400B480091016852027A
:100FE0001143016000F012F8FFF716FA616B202040
:100FF00001436163616B0140009100F0BDF800F0B6
:101000003DF838BD401002400000014010B51448C2
:10101000016882151143016001684905C90FFBD0C1
:1010200081680F221202914381608168C908C9005A
:101030008160382281681142FCD181680722120345
:1010400091438160074C2046FFF758FA2046FFF78E
:10105000DDFA0349403148690C229043486110BDD4
:10106000001002400024F40010B51B20FFF75EFCC6
:101070000148FFF7DBFA10BD00380140F0B58FB032
:10108000202106A8FFF765F818216846FFF761F8E8
:1010900032480121026889030A430260006808405F
:1010A0000E900120FFF71EFA0120002401254002C6
:1010B0000527059502263F07009002940394694690
:1010C000019604943846FFF7B6F9A80205950090FA
:1010D000029403946946019604943846FFF7ABF9ED
:1010E00000211B20FFF73EFC1B20FFF72FFCE12017
:1010F000400207900894069409940A940C940D9465
:101100000C20174C0B9006A92046FFF7C3FAA068E5
:10111000C000C008A060A068072149068843A060FD
:1011200020686907884320602046FFF775FA206829
:1011300028432060E0698002C00FFBD0E0694002D4
:10114000C00FF7D0082020622068202108432060CB
:10115000A0682843A0600FB0F0BD0000401002401E
:101160000038014010B51C20FFF7E0FB0148FFF7F5
:101170005DFA10BD00440040F0B58FB0202106A8F4
:10118000FEF7E7FF18216846FEF7E3FF314801212B
:10119000C26B49040A43C263C06B08400E90012031
:1011A000FFF7A0F9012504200024059500900226F0
:1011B0000520029403946946019604940007FFF702
:1011C0003AF908270520009702940394694600071E
:1011D000019605950494FFF72EF900211C20FFF7D6
:1011E000C1FB1C20FFF7B2FBE120400207900894EE
:1011F000069409940A940C940D940C20164C0B90B0
:1012000006A92046FFF746FAA068C000C008A06003
:10121000A068072149068843A0602068E10488434C
:1012200020602046FFF7F8F9206828432060E06935
:101230008002C00FFBD0E0694002C00FF7D02762E8
:101240002068202108432060A0682843A0600FB0D8
:10125000F0BD0000001002400044004010B5002224
:10126000084B08E0DC692406E40FFBD004789C629C
:10127000521C92B2401C8A42F4D3D8694006C00F77
:10128000FBD010BD0044004070B5144C0025207800
:10129000134E06280FD005280CD1FFF75DFC00285F
:1012A0001AD010A0FFF732FBFFF746FE72B63046A9
:1012B00000F0C2F870BDFFF72FFC00280AD0FFF73E
:1012C00039FC002801D00FA0ECE71DA0FFF71EFBA2
:1012D000257070BD29A0F9E732A0F7E7E0080020EB
:1012E0000038000869617020737563636565642C5C
:1012F000206A756D7020746F206170702E2E2E0D17
:101300000A0000006170702065786973742C206A8F
:10131000756D7020746F206170702E2E2E202861E4
:101320007070206E657665722065726173656420E9
:10133000262076616C696420617070290D0A0000B6
:10134000617070206E6F742065786973742C2077DB
:101350006169742E2E2E2028617070206E6576656E
:1013600072206572617365642026206E6F2076613D
:101370006C696420617070290D0A00006170702032
:101380006E6F742065786973742C20776169742E90
:101390002E2E202861707020657261736564290D9E
:1013A0000A000000696170206661696C2C20706C15
:1013B0006561736520646F776E6C6F61642061672F
:1013C00061696E210D0A000010B50022D243074B5F
:1013D00007E0047854402406A40D1C59120A624008
:1013E000401C491EF5D2D04310BD00004C11002016
:1013F00030B50A4B0A4C002108460022C50702D02E
:101400004008584000E04008521C082AF6D38A00E1
:10141000491CA050FF29EFD930BD00002083B8ED52
:101420004C1100200349CA691206D20FFBD0C2B288
:101430008A6270470038014010B50168074A1140C0
:1014400001225207914207D14168054C2160006892
:10145000FEF73EFE2068804710BD00000000FE2F12
:101460001400002072B6BFF34F8F04490248C860D1
:10147000BFF34F8F00BFFDE70400FA0500ED00E069
:1014800070B5FFF797FB040006D0044D288884420E
:1014900001D1FFF72FFD2C8070BD0000000000205F
:1014A00000252C46FFF786FDFFF7D0FBFFF704FD74
:1014B0000E4E06271420FFF769F9FFF7E1FF14200D
:1014C000FFF754FC641CA4B2FA2C03D3002408A038
:1014D000FFF71CFA3078012804D16D1CADB21E2D27
:1014E00000D33770FFF7D0FEE4E70000E0080020EB
:1014F000776169742E2E2E0D0A000000F8B527487A
:1015000024A10546FEF730FE002802D0FFF7AAFF0F
:10151000F8BD23A12846FEF727FE04001CD0A07AC0
:10152000E17A0002401885B220460C300746FEF7EB
:1015300036FE00BA060AF878360206431034204612
:10154000FEF72DFE00BA020AE0781202024331468D
:10155000284600F02FF8F8BD14A12846FEF704FE37
:101560000400F8D0207961790002401885B2A01DEE
:10157000FEF715FE00BA010A607A09020143A07A5B
:10158000E27A0002801882B223460C33284600F02B
:1015900049F8F8BD7265626F6F740000FC080020A6
:1015A0007570646174655F61636B00006461746190
:1015B0000000000070B5154613460C460A46064664
:1015C000014607A0FFF7A2F9154902204E80CD6021
:1015D0008C600870FFF7DEFAFFF70AFF70BD0000AD
:1015E00072656376207570646174655F61636B20FA
:1015F000287061636B6167655F6E756D3D25642C56
:101600002066696C655F73697A653D25642C206688
:10161000696C655F63726333323D2564290D0A008E
:10162000E0080020FFB51E460F460B4681B0054678
:1016300001461748039AFFF769F9164CA088401C29
:10164000A84204D014A0FFF761F905B0F0BD304600
:101650000399FFF7B9FE0146B84206D016A0FFF77E
:1016600055F9207C401C2074EFE7002020741D49B0
:10167000E80240183146039AFFF7BAFAA088401CE6
:1016800080B2A08061888842DFD304202070DCE72C
:1016900078170008E00800206E6F7420726563768A
:1016A000207269676874207061636B6167655F6948
:1016B0006E6465780D0A00006275665F637263335D
:1016C00032206E6F7420657175616C2063726333B4
:1016D000322120286275665F63726333323D256470
:1016E000290D0A000030000801000000020000007F
:1016F0000400000006000000080000000A000000CE
:101700000C0000001000000020000000400000005D
:101710008000000000010000000000000000000048
:1017200000000000000000000000000000000000B9
:1017300000000000000000000100000002000000A6
:101740000300000004000000060000000700000085
:101750000800000009000000000000000000000078
:101760000000000000000000010000000200000076
:101770000300000004000000726563762075706449
:101780006174655F6461746120287061636B616777
:10179000655F696E6465783D25642C207061636BBC
:1017A0006167655F6C656E6774683D25642C2063B6
:1017B000726333323D2564290D0A0000DC170008EE
:1017C000000000201C000000A8090008F81700080D
:1017D0001C00002034170000B809000800000000B9
:1017E000000000000024F4000000000000000000E1
:0817F0000000000000000000F1
:04000005080000BD32
:00000001FF
