:020000040800F2
:10000000881900204D01000829080008290500086A
:10001000270800085D0200086D0A000800000000C3
:1000200000000000000000000000000015090008AA
:100030005F020008000000005D08000817090008C2
:1000400067010008670100086701000867010008F0
:1000500067010008670100086701000867010008E0
:1000600067010008670100086701000867010008D0
:1000700067010008670100086701000867010008C0
:1000800067010008670100086701000867010008B0
:1000900067010008670100086701000867010008A0
:1000A0006701000867010008670100086701000890
:1000B0006701000867010008670100086701000880
:1000C0006701000867010008670100086701000870
:1000D00067010008C1090008190A00086701000843
:1000E0006701000867010008670100086701000850
:1000F0006701000867010008670100086701000840
:10010000670100086701000867010008670100082F
:10011000670100086701000867010008670100081F
:10012000670100086701000867010008670100080F
:10013000DFF80CD000F080F8004800473D150008BB
:100140008819002080F3088870470000064880471F
:1001500006480047FEE7FEE7FEE7FEE7FEE7FEE7AC
:10016000FEE7FEE7FEE7FEE7BD09000831010008F3
:10017000202A04DB203A21FA02F00021704721FAFC
:1001800002F3D040C2F12002914008431946704763
:1001900040EA01039B0703D009E008C9121F08C009
:1001A000042AFAD203E011F8013B00F8013B521E89
:1001B000F9D27047D2B201E000F8012B491EFBD200
:1001C00070470022F6E710B513460A460446194662
:1001D000FFF7F0FF204610BD30B505462A460B4616
:1001E00012F8010B13F8014B08B1A042F8D01CB172
:1001F000002802D06D1CF1E7284630BD421C10F8E3
:10020000011B0029FBD1801A704730B50B4601460F
:1002100000202022012409E021FA02F59D4205D3A5
:1002200003FA02F5491B04FA02F52844151EA2F14F
:100230000102F1DC30BD0000064C074D06E0E0682D
:1002400040F0010394E8070098471034AC42F6D31D
:10025000FFF772FFDC170008FC170008FEE7704785
:1002600006490020C8610648016941F004010161A6
:10027000016941F040010161704700002000002049
:1002800000200240064A0021D16106490A6942F075
:1002900002020A614861086940F040000861704745
:1002A0002000002000200240044B0022DA61044AB2
:1002B000136943F00103136101807047200000209F
:1002C0000020024014480022C168CB06134904D51F
:1002D000CA6942F00202CA611022C3685B0705D5F1
:1002E000CB6943F00103CB6142F00402C369DB0731
:1002F00007D0CB6943F00403CB61C16921F0010150
:10030000C161A2F58071013901D0C2607047C16935
:1003100021F00101C161704700200240200000204F
:1003200070B5054600F0E0F80646114C09E0681C7F
:1003300007D025B100F0D8F8801BA84201D90320CE
:1003400070BDE068C007F2D1E068800601D52020CA
:10035000E060E068C00605D4E069C00702D1E0684B
:10036000400703D5FFF7AEFF012070BD002070BD30
:10037000002002404FF0E020016921F002010161FC
:10038000704700002DE9F047054626480F46012634
:10039000017E01290FD00121814601762868DFF80E
:1003A00088804CF25034022808D0A2462046FFF73D
:1003B000B7FFA8B131E00220BDE8F0872046FFF783
:1003C000AFFF08BB0120FFF74BFF2046FFF7A8FF58
:1003D000D8F81010064621F00401C8F810101CE0EF
:1003E0004FF0FF303860AC6811E02046FFF74AFF5D
:1003F0005046FFF795FFD8F81010060021F00201D3
:10040000C8F8101001D03C6007E004F50064D5E99D
:10041000020100EBC120A042E7D8002189F81810A2
:100420003046C9E72000002000200240034801694F
:1004300041F080010161002070470000002002406F
:100440002DE9F05F07461C4888460024017E1546CA
:100450001E46012909D00121814601764CF2503A0D
:100460005046FFF75DFF18B122E00220BDE8F09F83
:10047000012F02D0022F00D00427D346DFF83CA082
:10048000220128463146FFF773FE81B208EB440093
:10049000FFF70AFF5846FFF743FFDAF8102022F073
:1004A0000102CAF8102018B9641CE4B2BC42E7D3B8
:1004B000002289F81820D9E72000002000200240FF
:1004C000064900200A69120607D5054A4A60054A0E
:1004D0004A600969090600D50120704700200240E2
:1004E00023016745AB89EFCD0148006870470000E4
:1004F0000400002002480168491C016070470000A8
:100500000400002007484FF47A71B0FBF1F14FF07E
:10051000E020491E4161002181610521016107211F
:10052000016170470024F400FEE7000002490A69F7
:1005300002430A61704700000010024002490A6944
:1005400082430A617047000000100240044908B568
:100550008A6902438A6189690140009108BD0000EF
:1005600000100240F0B50A68C2F30F2595FAA5F213
:10057000B2FA82F369E001229A402A4264D0082B41
:1005800003D240F201129A4006E0A3F108024FF0B4
:100590000114944044F080624C68082C0BD10C6923
:1005A000C668170A97FAA7F7B7FA87F726EA122656
:1005B000BC402643C66092FAA2F700EB1264B7FA79
:1005C00087F74FEA870C0F27266807FA0CF7BE4318
:1005D00092FAA2F7D1F804E0B7FA87F7BF000EFA53
:1005E00007FE46EA0E0626604F68012F01D0092F4C
:1005F0002AD192FAA2F7B7FA87F74FEA870C0327B6
:1006000007FA0CF7BE4392FAA2F7B7FA87F7D1F8C8
:1006100008E0BF000EFA07FE92FAA2FC46EA0E06B8
:10062000BCFA8CFC4FEA8C0E4FF0040C26600CFADE
:100630000EFC92FAA2F2B2FA82F2CF68920026EA97
:100640000C0697403E4326605B1C35FA03F292D1BC
:100650000020F0BD4FF47A71B0FBF1F14FF0E020D3
:10066000491E41610021816105210161704700B58A
:10067000034600F01FF9186000F0F2F8586000F02F
:10068000FDF89860586800F007F9D86000BD0000D8
:1006900001490860704700000800002070B5174944
:1006A0000024884209D11648C16841F48041C160E4
:1006B000C16821F48041C1601EE01249884202D124
:1006C0004FF4003510E01049884202D14FF48025E4
:1006D0000AE00E49884202D14FF4002504E00C499B
:1006E000884208D14FF480152846FFF71FFF28469F
:1006F000FFF724FF00E00124204670BD00380140D0
:10070000001002400044004000480040004C0040FF
:10071000005000402DE9FF410446C0680D46012607
:10072000C0F34030002861D1E9686868E268084396
:10073000296941F20C639A4311430843E060A868B9
:10074000216921F44051014321616869616921F403
:100750004071014361616846FFF789FF2548844283
:1007600001D103980CE02448844208D023488442F5
:1007700005D02348844202D02248844236D10298D0
:10078000A0B32A6892B300EBC00101EB0011920004
:10079000B1FBF2F36420B3FBF0F36FF018077B4377
:1007A000B1FBF2F5B1FBF2F705EB8305322303EB66
:1007B0000515B5FBF0F5B7FBF0F705F0F00505EB17
:1007C0000715B1FBF2F7B1FBF2F1B1FBF0F1002636
:1007D0006FF01802514307EB810103EB0111B1FBEC
:1007E000F0F000F00F00284480B2A06004B0304662
:1007F000BDE8F0810038014000440040004800405E
:10080000004C00400050004008B54FF0E0210A695C
:100810000092421C00D0401C0A69D20300D5401E41
:100820000028F9D108BDFEE7FEE730B500F0070368
:10083000C3F10704042C00D90424181D072801D291
:10084000002300E0DB1E012505FA04F0401E0840ED
:1008500098409D406D1E1540284330BD70470000F4
:1008600004494968044A01F0F0010909515CC84093
:1008700070470000001002408017000804494968D2
:10088000044A01F4E06102EB11210978C840704785
:10089000001002409017000804494968044A01F416
:1008A000605102EBD1210978C84070470010024026
:1008B000901700080648406810F00C01054805D064
:1008C000042903D0082901D100F006B870470000C0
:1008D0000010024000127A000B48416811F4803287
:1008E0000A4909D0B2F5803F06D14168084AC1F3F0
:1008F0004041491CB2FBF1F14068022200F4701043
:1009000002EB9040484370470010024000093D0050
:1009100000127A007047FFF7EDBD0000244810B5C3
:10092000016821F007010160016811F0070FFBD198
:100930002048016821F0F80141F080010160016860
:1009400041F0010101600168C1F340010029FAD0C2
:10095000416821F47C1141F400214160016841F0BB
:10096000807101600168C1F340610029FAD04168DB
:1009700021F0F0014160416821F4E061416041688B
:1009800021F460514160416821F0030141F002010E
:100990004160416801F00C010829FAD1064C20465B
:1009A000FFF758FE2046BDE81040FFF771BE00007B
:1009B00000200240001002400024F40070470000B4
:1009C00038B5124C2068C0F3401090B1E068C0F315
:1009D000401070B160680F490D4B0A889854521C42
:1009E00090B240F698020880904201D3002008801F
:1009F00038BD252000F04CF8206800904007F7D55E
:100A0000206800906068009038BD00000038014008
:100A1000400000200C00002038B5114C2068C0F3C5
:100A2000401080B1E068C0F3401060B160680E49CA
:100A30000C4B4A889854521C90B24880322801D3FB
:100A40000020488038BD262000F022F82068009061
:100A50004007F7D5206800906068009038BD00001E
:100A600000440040D80800200C000020FEE70000F1
:100A70000FB4054B10B503A9044A029800F046F8DC
:100A800010BC5DF814FB0000B51400081000002035
:100A900000280DDB00F01F02012191404009800079
:100AA00000F1E020C0F88011BFF34F8FBFF36F8FCC
:100AB0007047002809DB00F01F0201219140400926
:100AC000800000F1E020C0F8001170470907090E0E
:100AD000002804DB00F1E02080F80014704700F0EB
:100AE0000F0000F1E02080F8141D704702E008C8F4
:100AF000121F08C1002AFAD170477047002001E098
:100B000001C1121F002AFBD1704700002DE9FF4FE1
:100B100089B09B460446002506E025280BD05A469E
:100B20000B999047641C6D1C20780028F5D10DB0FE
:100B30002846BDE8F08F0027B8460122474900E06B
:100B4000074314F8013F203B02FA03F00842F7D1B3
:100B500020782E2819D114F8010F47F004072A280D
:100B60000ED06FF02F022078A0F1300109290CD8A7
:100B700008EB880102EB410100EB0108641CF2E77D
:100B80000A98641C50F8048B0A9020780028CED074
:100B9000642808D0692806D075281ED05A460B99BB
:100BA00090476D1C58E00A994FF00A0901C90A9153
:100BB000002802DA40422D2102E0390504D52B211C
:100BC0008DF82010012103E0F90704D02021F7E778
:100BD0008A4608AE0DE00021FAE70A994FF00A09AB
:100BE00001C90A91F7E74946FFF70FFB303106F8D4
:100BF000011D0028F7D1ADEB060000F120097807B0
:100C000001D44FF00108C84502DDA8EB090000E05F
:100C100000208046002706E008A85A46C05D0B99D0
:100C200090476D1C7F1C5745F6DB04E030205A4688
:100C30000B9990476D1CB8F10001A8F10108F5DC93
:100C400005E016F8010B5A460B9990476D1CB9F157
:100C50000001A9F10109F4DC641C65E70928010021
:100C600004484068B0F1AA3F01D00120704700203D
:100C7000704700000C09002070B5074D0024601972
:100C800000F0F6F9FF2801D0012070BD641CE4B229
:100C9000202CF4D3002070BD0048000804484068B0
:100CA000B0F1553F01D0002070470120704700008F
:100CB0000C09002010B540F698010348FFF781FAAF
:100CC00002490020088010BD400000200C000020D8
:100CD00010B5F921034800F0B2F9BDE8104000203A
:100CE00000F00CB8003800080048704700380008D1
:100CF00001480088704700000C00002005490128C9
:100D000004D04FF0AA30486000F044B84FF055309E
:100D1000F9E700000C09002000487047400000205F
:100D200000F068BA2DE9F04114000F464FF00005BD
:100D300006461AD0A00715D022F00304241D11E0A6
:100D400007EB850017F82510427841EA02218278E6
:100D5000C07841EA024141EA0061304600F08AF978
:100D60006D1C361DB5EB940FEAD3BDE8F081000091
:100D700070B5064D064E0024601900F079F9305523
:100D8000641CA4B2102CF7D370BD0000002800082A
:100D90000C0900200148012100F051B90028000889
:100DA0001FB5044600200CA2009001900290039011
:100DB00007CA8DE807006846FFF720FA80B2220ACA
:100DC0000DF80020401C80B20DF80040401C81B29C
:100DD000684600F0F5F81FBD726571756573745F44
:100DE00064617461000000001FB50446002000909B
:100DF00001900290039009A00088ADF800007420D3
:100E00008DF802006846FFF7F9F981B268460DF8DF
:100E10000140491C89B200F0D3F81FBD726574000F
:100E20001FB50020009001900290039006A0016879
:100E300000918088ADF804006846FFF7DFF981B2C1
:100E4000684600F0BDF81FBD7570646174650000F0
:100E50002DE9F0472F4D06462846297880882E4CEC
:100E6000022917D04FF00509032920D004294FD1BA
:100E700085F80090FFF738FFA96800F0EDFAEA68FE
:100E800001468A4239D10120FFF7AEFF0120FFF76A
:100E900035FF38E00321401C297080B2FFF780FF46
:100EA000A88860802088304420801CA02CE06188C5
:100EB00000274FF00208884202D085F80080278082
:100EC0002088304480B22080B0F5FA7F08D315A086
:100ED000FFF7CEFD287C401C2874278085F8008011
:100EE000287C052814D915A0FFF7C2FD85F80090CD
:100EF000BDE8F0470020FFF777BF1BA0FFF7B8FD64
:100F00000020FFF771FF26A0BDE8F047FFF7B0BD56
:100F1000BDE8F0871C0900201800002073656E648E
:100F200000000000776169742064617461206F764D
:100F3000657274696D650D0A000000007061636B75
:100F40006167652065727220636E74206F766572CA
:100F50006C696D69742C2073746F70207570646196
:100F60007465210D0A0000006372633332206E6FD6
:100F70007420657175616C2C2063726333325F7607
:100F8000616C7565203D2025642C2066696C655F69
:100F90006372633332203D2025640D0A0000000097
:100FA00073656E64207265740D0A000010B5FFF75A
:100FB00037FF02490120087010BD00001C09002005
:100FC00070B50C460A46014605480546FFF7E0F8AD
:100FD0000448214644602846BDE87040FFF7A0BEA3
:100FE0006A1100203009002010B5FFF781FE0D4C7A
:100FF0002060FFF791FE014604F1080022680446D4
:10100000FFF7C6F800F0C8FA40F632012046FFF7B5
:10101000D8F81E210448FFF7D4F8BDE81040FFF7C8
:1010200049BE0000300900206A11002010B500F010
:101030006DF800F0F7F8BDE81040FFF79BB970B508
:1010400086B000260C4605460496FFF739FACDE92E
:10105000025404A968460096FFF794F920B1FFF7FF
:10106000E5F9002006B070BDFFF7E0F90120F9E7CF
:101070000078704770B50C460546FFF721FA224606
:10108000002329460220FFF7DBF918B1FFF7CEF95C
:10109000002070BDFFF7CAF9012070BD174808B5E0
:1010A000816941F001018161816901F001010091D3
:1010B000C16941F08051C161C069114900F080509F
:1010C000009008684FF6FF0210400E4A40F440704E
:1010D000104308600C48416821F0E06141604168BC
:1010E00041F000714160FFF719FCFFF70BFA00F0C7
:1010F00019F8BDE8084000F0A1B800000010024057
:101100000CED00E00000FA050000014010B52520BC
:10111000FFF7BEFCBDE810400148FFF7BFBA000072
:101120000038014030B58DB01C216846FFF749F802
:10113000142107A8FFF745F84FF48040FFF706FA9F
:101140000420FFF703FA264807900920089003209F
:101150000024CDE90904234D07A92846FFF702FA28
:10116000214807900420089007A92846FFF7FAF9BC
:101170001E4800680022C0F302201146FFF755FB0D
:1011800001462520FFF7A2FC2520FFF792FC4FF433
:10119000E130CDE900040C200294CDE90340059430
:1011A0000694134C69462046FFF7B4FA206920F4F0
:1011B00090402061606920F02A006061E06840F49E
:1011C0000050E06020680C9060680C90E06840F08F
:1011D0002000E060606940F0010060610DB030BD4A
:1011E0000200020400080140040004040CED00E0C9
:1011F0000038014010B50022094B09E01C68C4F317
:10120000C014002CFAD010F8014B5C60521C92B252
:101210008A42F3D31868C0F380100028FAD010BDBA
:101220000038014010B52620FFF732FCBDE8104021
:101230000148FFF733BA00000044004030B58DB0DC
:101240001C216846FEF7BDFF142107A8FEF7B9FF71
:101250002D48C16941F40031C161C06900F400301A
:101260000C900420FFF772F940F204400790092027
:10127000089003200024CDE90904244D07A928463D
:10128000FFF770F940F6080007900420089007A9BE
:101290002846FFF767F91E4800680022C0F30220C5
:1012A0001146FFF7C2FA01462620FFF70FFC262061
:1012B000FFF7FFFB4FF4E130CDE900040C2002946E
:1012C000CDE9034005940694124C69462046FFF789
:1012D00021FA206920F490402061606920F02A0002
:1012E0006061E06840F40050E06020680C90606845
:1012F0000C90E06840F02000E060606940F0010080
:1013000060610DB030BD00000010024000080140D7
:101310000CED00E00044004070B5144C0025144E64
:101320002078062810D005281BD1FFF7B7FC00282D
:101330001AD010A0FFF79CFBFFF778FE72B630467C
:10134000BDE8704000F0C2B8FFF78AFC002809D061
:10135000FFF792FC08B10FA0ECE71DA0FFF788FB98
:10136000257070BD29A0F9E732A0F7E71C0900201D
:101370000038000869617020737563636565642CCB
:10138000206A756D7020746F206170702E2E2E0D86
:101390000A0000006170702065786973742C206AFF
:1013A000756D7020746F206170702E2E2E20286154
:1013B0007070206E65766572206572617365642059
:1013C000262076616C696420617070290D0A000026
:1013D000617070206E6F742065786973742C20774B
:1013E0006169742E2E2E2028617070206E657665DE
:1013F00072206572617365642026206E6F207661AD
:101400006C696420617070290D0A000061707020A1
:101410006E6F742065786973742C20776169742EFF
:101420002E2E202861707020657261736564290D0D
:101430000A000000696170206661696C2C20706C84
:101440006561736520646F776E6C6F61642061679E
:1014500061696E210D0A000010B54FF0FF32074B95
:1014600008E000BF10F8014B5440E4B253F82440A8
:1014700084EA1222491EF5D2D04310BD8811002003
:1014800030B50A4B0A4C002108460022C50702D09D
:1014900083EA500000E04008521C082AF6D344F8C2
:1014A0002100491CFF29EFD930BD00002083B8ED91
:1014B0008811002004490A685206FCD5024AC1B2CC
:1014C000121D1160704700000044004010B5016813
:1014D000074A1140B1F1005F09D14168054C216014
:1014E0000068FEF72FFE2068BDE81040004710BDE1
:1014F0000000FE2F1400002072B6BFF34F8F054886
:101500000168054A01F4E06111430160BFF34F8FA8
:1015100000BFFDE70CED00E00400FA0570B5FFF731
:10152000E7FB040006D0044D2888844201D1FFF770
:101530005BFD2C8070BD00000000002000252C46C3
:10154000FFF7ACFDFFF714FCFFF730FD0E4E06274A
:101550001420FFF759F9FFF7E1FF1420FFF778FC9B
:10156000641CA4B2FA2C03D3002408A0FFF780FA6D
:101570003078012804D16D1CADB21E2D00D3377018
:10158000FFF7CAFEE4E700001C09002077616974D8
:101590002E2E2E0D0A00000010B5254822A104466B
:1015A000FEF71AFE18B1BDE81040FFF7A5BF21A154
:1015B0002046FEF711FEB8B1C17A827A00F110041C
:1015C00001EB02218BB2C168C27B09BA006921F02C
:1015D000FF01114300BA20F0FF02E078BDE810409F
:1015E0000243184600F030B815A12046FEF7F4FD7E
:1015F000002817D041790279837A01EB02218CB25D
:10160000D0F80610427A09BA21F0FF011143C27ADC
:1016100002EB032200F10C032046BDE8104092B219
:1016200000F04AB810BD00007265626F6F74000070
:10163000380900207570646174655F61636B000038
:10164000646174610000000070B5154613460C46D5
:101650000A460646014607A0FFF70AFA1549022086
:101660004E80C1E902450870FFF732FBBDE87040CB
:10167000FFF706BF72656376207570646174655FFD
:1016800061636B20287061636B6167655F6E756D68
:101690003D25642C2066696C655F73697A653D251C
:1016A000642C2066696C655F63726333323D256428
:1016B000290D0A001C0900202DE9F0411E460F46A5
:1016C0000B460546014690461748FFF7D1F9174CDF
:1016D000A088401CA84204D0BDE8F04114A0FFF748
:1016E000C7B941463046FFF7B7FE0146B84207D0BA
:1016F00017A0FFF7BDF9207C401C2074BDE8F081E5
:10170000002020741D48424600EBC5203146FFF7FB
:1017100009FBA088401C80B2A08061888842EDD37C
:1017200004202070EAE70000981700081C09002038
:101730006E6F7420726563762072696768742070BA
:1017400061636B6167655F696E6465780D0A0000AF
:101750006275665F6372633332206E6F74206571E9
:1017600075616C2063726333322120286275665F75
:1017700063726333323D2564290D0A00003000088E
:101780000000000000000000010203040607080931
:101790000000000001020304726563762075706426
:1017A0006174655F6461746120287061636B616757
:1017B000655F696E6465783D25642C207061636B9C
:1017C0006167655F6C656E6774683D25642C206396
:1017D000726333323D2564290D0A0000FC170008AE
:1017E000000000201C000000EC0A00081818000887
:1017F0001C0000206C190000FC0A0008000000001A
:10180000000000000024F4000000000000000000C0
:081810000000000000000000D0
:0400000508000131BD
:00000001FF
