:020000040000FA
:10000000D00A0020DD000000F70000001907000002
:1000100000000000000000000000000000000000E0
:10002000000000000000000000000000FB000000D5
:100030000000000000000000FD0000002908000092
:10004000250700002F0700003907000043070000C4
:100050004D07000057070000610700006B07000014
:100060000101000001010000750700007F0700008A
:1000700089070000930700009D070000A707000004
:10008000B107000001010000BB070000C507000028
:10009000CF070000D9070000E307000001010000BE
:1000A000ED07000001010000F70700000108000053
:1000B0000B08000001010000150800001F080000E7
:1000C0000348854600F088F800480047FD0100001D
:1000D000D00A002080F308887047000009480A4AC7
:1000E000002100A1814200D902440848026008486A
:1000F000804708480047FEE7FEE7FEE7FEE7FEE729
:10010000FEE70000000000200000000008ED00E015
:10011000B5090000C100000030B50B4601460020C3
:100120002022012409E00D46D5409D4205D31D46FD
:100130009540491B2546954040191546521E002DF5
:10014000F1DC30BD03460B439B0703D009E008C92F
:10015000121F08C0042AFAD203E00B780370401C77
:10016000491C521EF9D27047D2B201E00270401C05
:10017000491EFBD270470022F6E710B513460A4627
:1001800004461946FFF7F0FF204610BD30B505467E
:100190002A460B4610781C78521C5B1C002801D0A4
:1001A000A042F7D0002C03D0002802D06D1CEFE74E
:1001B000284630BD421C0178401C0029FBD1801A22
:1001C00070470321001D401E037812021A43491E86
:1001D000F9D5104670470000064C0125064E05E093
:1001E000E36807CC2B430C3C98471034B442F7D358
:1001F000FFF76AFF5C1800007C18000010B500F0E3
:10020000D9FB01F0C9F9002010BD01218907086060
:1002100008690007FCD5486902229043486170478D
:1002200002480068002800D00047704710000020F6
:1002300010B5012000F05AF8012804D100F010F8A0
:10024000012000F02BF8002000F050F8012805D123
:10025000002000F005F8002000F020F810BD00009C
:1002600010B5044601200A4B0A490B4A002C06D05F
:10027000012C0BD1CB62CA62886AA04304E0CB6236
:10028000CA62886A022290438862002010BD000082
:100290005A5A000000000240A5A5000030B50546EE
:1002A00001200F4C0F49104B6022002D0DD0012D65
:1002B0000AD1CC62CB62086A4006C00F8301086A8B
:1002C000904318430862002030BDCC62CB62086ABC
:1002D0000B6A8006C00F4001934303430B62F2E7B1
:1002E0005A5A000000000240A5A500000246002066
:1002F0000549002A04D0012A05D1486AC00701E057
:10030000486A8007C00F704700000240F7B58AB006
:100310000C4606460025FF272021684609970895C8
:10032000FFF729FF2848012C02460CD0022C0AD0E6
:10033000042C08D0062C06D0082C04D00C2C02D09B
:1003400004200DB0F0BD214B1E60016A01235B0249
:1003500099430C9BDB079B0D1943016269461C4EB8
:10036000AB00F6586D1C6643CE50082DF7D30C2613
:10037000184B194D082C0BD00C2C0FD0C362C56242
:10038000046AB44304620024FF23A600099310E02A
:10039000C362C562046AB443241DF3E70197F7E71B
:1003A000099D6D1E09950DD30A4BC3620A4BC362AA
:1003B000975193598F59BB42F2D1641C082CE3D357
:1003C0000898BEE70720BCE70000024010000020AC
:1003D000F81700005A5A0000A5A50000F8B5FF2242
:1003E000254900270092884201D90420F8BD2349FD
:1003F00003E0009B5C1E00943CD30B6ADB06F8D440
:100400001F4B204C00920AE0009E761E009631D3CE
:10041000CB62CC620D6AAD08AD00AD1C0D620D6AF9
:10042000AD07AD0F022DEFD1009208E0009E761EC1
:1004300000961FD3CB62CC620025ED430D630D6B9C
:100440006D1CF3D10570009203E00098461E0096E3
:1004500010D3086AC006F8D4009206E00098421E45
:10046000009207D3CB62CC620D63086B0028F5D1F4
:100470003846F8BD0920F8BDFFFF0000000002402B
:100480005A5A0000A5A50000F8B58C46FF2327495D
:1004900000270093884201D90420F8BD244A03E0D4
:1004A00000994C1E00943ED3116AC906F8D4214C21
:1004B000214D00930AE0009E711E009133D3D46257
:1004C000D562166AB608B600761C1662166AB607BA
:1004D000B60F012EEFD1009308E0009E711E00912F
:1004E00021D3D462D5620026F6431663166B761CC0
:1004F000F3D161460170009303E00098411E009122
:1005000011D3106AC006F8D40021009306E00098C9
:10051000431E009307D3D462D5621163106B002889
:10052000F5D13846F8BD0920F8BD0000FFFF0000F6
:10053000000002405A5A0000A5A50000F8B58C46FC
:10054000FF23274900270093884201D90420F8BDE2
:10055000244A03E000994C1E00943ED3116AC90658
:10056000F8D4214C214D00930AE0009E711E0091A9
:1005700033D3D462D562166AB608B600761C16620A
:10058000166AB607B60F012EEFD1009308E0009E61
:10059000711E009121D3D462D5620026F643166302
:1005A000166B761CF3D161460160009303E000985E
:1005B000411E009111D3106AC006F8D400210093A7
:1005C00006E00098431E009307D3D462D5621163FE
:1005D000106B0028F5D13846F8BD0920F8BD0000A1
:1005E000FFFF0000000002405A5A0000A5A50000CD
:1005F00030B5224BC318DD6801248C40A543DD6073
:10060000890008181E490025401805601078012847
:10061000186824D0A043186050780028D86920D0EA
:100620002043D861907801281DD00228186A1DD077
:10063000A0431862586AA0435862D0780028D86A4C
:1006400019D02043D8620F49886801231279DB034F
:10065000D2079843120C10438860002030BD20431D
:10066000D9E7A043DDE7186A2043E2E7A043186218
:10067000586A2043E0E7A043E4E70000000D024091
:10068000000C0240000F024089000818024940187F
:100690000260002070470000000C0240024801691F
:1006A000022291430161704700E000E001B5044976
:1006B00008680A68009B121A9A42FAD308BD000023
:1006C0000800002002480168491C016070470000D2
:1006D0000800002010B50C487D21C9000068FFF714
:1006E0001BFD0A49401E88420CD809494861094847
:1006F0000722C3691B021B0A4C042343C361002069
:1007000088610A6110BD000000000020FFFFFF00AB
:1007100000E000E004ED00E008B5002000900028B3
:10072000FDD008BD10B50020C046C04610BD10B5B4
:100730000120C046C04610BD10B50220C046C046CC
:1007400010BD10B50320C046C04610BD10B5002036
:10075000C046C04610BD10B50020C046C04610BD02
:1007600010B5002000F042F910BD10B5012000F0D6
:100770003DF910BD10B50020C046C04610BD10B5F3
:100780000120C046C04610BD10B50020C046C0467E
:1007900010BD10B50120C046C04610BD10B50020E8
:1007A000C046C04610BD10B50120C046C04610BDB1
:1007B00010B50220C046C04610BD10B50420C0468A
:1007C000C04610BD10B50520C046C04610BD10B5CE
:1007D0000620C046C04610BD10B50020C046C04629
:1007E00010BD10B50020C046C04610BD10B5002099
:1007F000C046C04610BD10B50020C046C04610BD62
:1008000010B50120C046C04610BD10B50020C0463E
:10081000C04610BD10B50020FFF702FD10BD10B599
:100820000020C046C04610BD00B5FFF74BFF00BD1D
:1008300010B58AB000241422484904A8FFF782FCAE
:100840004648001F00680990002001900290039024
:100850004348028869468A8142884A8182880A819F
:10086000C088C8803E482030008888803D480168A4
:1008700009064A0F3C49130000F014F905042A2C1C
:10088000383B6800C1686A4649059289490D914222
:1008900001D1089C5AE0C1686A4649055289490D50
:1008A000914201D1079C51E0C1686A46490512890D
:1008B000490D914201D1069C48E0C1686A4649054C
:1008C000D288490D914201D1059C3FE0049C3DE056
:1008D0000C463BE06946898842699205920D914237
:1008E000694601D1CC8C31E08C8C2FE00124E403EB
:1008F0002CE0C26BD243920724D169468989C26831
:100900005205520D914201D108991BE0694649896F
:10091000C2685205520D914201D1079912E0694611
:100920000989C2685205520D914201D1069909E028
:100930006946C988C2685205520D914201D1059994
:1009400000E00499C26BD205140F4C4300680AB052
:100950004005410F2046C84010BD0000E4170000CC
:10096000000C1000002000400048E80110B5FFF71F
:100970005FFF03490968C904890FC84010BD000022
:100980000020004010B5044601230020044AA34083
:100990000029116A01D0194300E09943116210BD8A
:1009A0000020004010B5FFF743FF0149086010BD6B
:1009B0000000002010B50B48408881050A48890DC9
:1009C0004269920A92020A43426106492039098922
:1009D000C2684905490DD20AD2020A43C260FFF734
:1009E000E1FF10BD200C10000020004010B516489B
:1009F00001690023CA071549002A10D0426952082C
:100A00005200426100F038F8114C0A88A054521C80
:100A100090B2104A0880904200D30B8010BD012094
:100A200080070269D207F9D0426952085200426138
:100A300000F014F8084C4A88A054521C90B2488028
:100A40000A28EBD34B8010BD0001004014000020A9
:100A5000200000202602000046020020012080071E
:100A60000068C0B270470000024800698007C00FEC
:100A7000704700000001004001480068C0B27047A4
:100A8000000100400FB410B503A9044B044A0298BA
:100A900000F060F810BC08BC04B01847171500003F
:100AA0000C00002030B47446641E2578641CAB42F0
:100AB00000D21D46635D5B00E31830BC18470000A0
:100AC000002805DBC106C90E0120884001490860E5
:100AD0007047000080E200E0002805DBC106C90E77
:100AE00001208840014908607047000000E100E0F3
:100AF0008307FF22DB0E9A408907090E99400028E0
:100B000008DB830809489B001B18186890430843BA
:100B1000186070470007000F0838830804489B00DE
:100B20001B18D86990430843D861704700E400E07F
:100B300000ED00E002E008C8121F08C1002AFAD147
:100B400070477047002001E001C1121F002AFBD14D
:100B500070470000FFB58DB00446002506E025284B
:100B60000AD0109A0F999047641C6D1C20780028B9
:100B7000F5D1284611B0F0BD00270121484A009761
:100B800000E00743641C23780846203B984010424D
:100B9000F7D120782E2817D1042007436078641CF1
:100BA0002A280CD10E98641C02C800910E900BE00C
:100BB00000990A22514330394018641C0090207873
:100BC000014630390929F3D920780028D1D064288A
:100BD00008D0692806D075281ED0109A0F99904722
:100BE0006D1C5BE00A200E99019001C90E9100284E
:100BF00002DA40422D2102E0390504D52B216A4654
:100C00001172012103E0F90704D02021F7E70BAEB0
:100C10000B910DE00021FAE70A200E99019001C91D
:100C20000E91F7E70199FFF777FA3031761E3170B0
:100C30000028F7D103A8801B20300190780701D548
:100C4000009801E0012000900199884201DD401ADE
:100C500000E000200027009006E002A8109AC05D86
:100C60000F9990476D1C7F1C0B988742F5DB04E0C1
:100C7000109A30200F9990476D1C0099481E0090E3
:100C80000029F5DC05E03078109A761C0F99904722
:100C90006D1C0199481E01900029F4DC641C65E775
:100CA00009280100044805494068884201D0012014
:100CB000704700207047000050020020AAAAAAAA8C
:100CC00070B500240925AD02601900F0EFF9FF2886
:100CD00001D0012070BD641CE4B2202CF4D30020AC
:100CE00070BD0000044805494068884201D10120D8
:100CF00070470020704700005002002055555555A0
:100D000010B504490448FFF736FA0449002008806A
:100D100010BD00002602000020000020140000206A
:100D200010B501207021400300F0B2F9002000F05E
:100D30000BF810BD012040037047000001480088F7
:100D4000704700001400002010B50549012804D0A8
:100D50000448486000F042F810BD0248C043F8E77C
:100D600050020020AAAAAAAA00487047200000202A
:100D700010B500F0D9FA10BDF8B500240E460546AE
:100D8000002A19D0900702D092089200121D9708ED
:100D900010E0A000315C821950780002084391787D
:100DA00009040143D07800060143284600F094F975
:100DB000641C2D1DA742ECD8F8BD000070B50024BE
:100DC0000725054EAD02601900F070F93055641C1E
:100DD000A4B2102CF7D370BD5002002070B50725C7
:100DE000AD020121284600F053F9054E0024315D83
:100DF000601900F05DF9641CA4B2102CF7D370BD2B
:100E0000500200201FB5044600200090019002907F
:100E10000AA2039007CA6B4607C36846FFF7CAF9E0
:100E200080B2220A69460A54401C80B20C54401C0D
:100E300081B2684600F0EEF81FBD00007265717562
:100E40006573745F64617461000000001FB504463F
:100E500000200090019002900390032207A16846B1
:100E6000FFF770F96846FFF7A5F981B26846445468
:100E7000491C89B200F0CEF81FBD000072657400F5
:100E80001FB500200090019002900390062206A159
:100E90006846FFF757F96846FFF78CF981B2684654
:100EA00000F0B8F81FBD0000757064617465000043
:100EB000F8B52C4D06462978284680882A4C022908
:100EC00015D0032920D0042940D105202870FFF730
:100ED00031FFA96800F0E8FAEA6801468A4236D193
:100EE0000120FFF7B3FF0120FFF72EFF35E00321BC
:100EF000401C297080B2FFF785FFA8886080208899
:100F00008019208019A029E061880027884202D03A
:100F100002202870278020881649801980B22080FE
:100F2000884208D314A0FFF7ADFD287C401C28742C
:100F3000278002202870287C052807D914A0FFF7F5
:100F4000A1FD052028700020FFF780FFF8BD1BA041
:100F5000FFF798FD0020FFF779FF26A0FFF792FD2D
:100F6000F8BD0000600200201C00002073656E6464
:100F700000000000DC050000776169742064617482
:100F800061206F76657274696D650D0A000000005E
:100F90007061636B6167652065727220636E742097
:100FA0006F7665726C696D69742C2073746F702034
:100FB000757064617465210D0A000000637263330B
:100FC00032206E6F7420657175616C2C20637263C2
:100FD00033325F76616C7565203D2025642C206678
:100FE000696C655F6372633332203D2025640D0AAE
:100FF0000000000073656E64207265740D0A0000C5
:1010000010B5FFF73DFF02490120087010BD000038
:101010006002002070B50C460A46014605480546A8
:10102000FFF790F80448214644602846FFF7A0FEE9
:1010300070BD0000AE0400207402002010B5FFF760
:101040007DFE0C4C2060FFF78FFE014620460830E5
:1010500022680446FFF776F800F0CCFA06492046ED
:10106000FFF789F81E210548FFF785F8FFF748FECE
:1010700010BD00007402002032020000AE04002007
:1010800010B500F0CBF800F049F8FFF707FB10BDF2
:1010900070B50D460646002404E060028019FFF793
:1010A0009DF9641CAC42F8D3012070BD00787047F4
:1010B00070B5044607480D46844209D82046FFF71C
:1010C000E3F9002804D12078A84201D1012070BDA5
:1010D000002070BDFFFF000070B504460D4680077C
:1010E00009D12046FFF72AFA002804D12068A84237
:1010F00001D1012070BD002070BD000010B501229B
:1011000011460548FFF702F9FFF7E4FA00F0AAF8E4
:1011100000F025F862B610BD310200001CB50521B3
:10112000684600F0EFF901211C20FFF72BFC012499
:10113000684604706A4608214020FFF759FA68465D
:1011400004706A4609214020FFF752FAA00741685F
:101150001022914341604168A14341601CBD7CB5B0
:101160000521684600F0CEF901211C20FFF70AFC9A
:101170000021684601706A4608214020FFF738FACE
:10118000072208214020FFF77FFA012568460570F5
:101190006A4609214020FFF72BFA07220921402047
:1011A000FFF772FA01210020FFF7ECFBAC07606843
:1011B000C0218843403060606068090288436060F5
:1011C00006263046FFF77CFC02213046FFF790FCF4
:1011D0003046FFF781FC6068611508436060FFF7E7
:1011E000C5FB61688905C90F16D008214B22D201C1
:1011F0005143FEF791FFA06160690221884360615D
:1012000060694008400060616068102108436060C8
:101210006068284360607CBD1021E7E71CB50521AC
:10122000684600F06FF901211C20FFF7ABFB012499
:10123000684604706A4602210020FFF7D9F9684623
:1012400004706A4603210020FFF7D2F90448416880
:101250001022914341604168A14341601CBD0000E0
:10126000000100407CB50521684600F04BF90121E2
:101270001C20FFF787FB0021684601706A460221A7
:101280000020FFF7B5F9012202210020FFF7FCF949
:101290000125684605706A4603210020FFF7A8F97A
:1012A000012203210020FFF7EFF901210846FFF793
:1012B00069FB1C4C6068C0218843403060606068F6
:1012C00009028843606007263046FFF7F9FB0321D7
:1012D0003046FFF70DFC3046FFF7FEFB60686115F6
:1012E00008436060FFF742FB61688905C90F16D0AB
:1012F00008214B22D2015143FEF70EFFA061606925
:101300000221884360616069400840006061606854
:101310001021084360606068284360607CBD102134
:10132000E7E700000001004030B50C460546002309
:1013300004E0E85C00F006F85B1C9BB2A342F8D323
:1013400030BD000000B507490A68120A12020243C4
:101350000A60FFF789FB0028FBD04869022290430E
:10136000486100BD0001004070B5154C0126207891
:101370000025760306280FD005280CD1FFF7B2FC14
:1013800000281AD00FA0FFF77DFBFFF779FE72B699
:10139000304600F0CDF870BDFFF784FC00280AD07D
:1013A000FFF78EFC002801D00EA0ECE71CA0FFF791
:1013B00069FB257070BD29A0F9E732A0F7E70000AE
:1013C0006002002069617020737563636565642C39
:1013D000206A756D7020746F206170702E2E2E0D36
:1013E0000A0000006170702065786973742C206AAF
:1013F000756D7020746F206170702E2E2E20286104
:101400007070206E65766572206572617365642008
:10141000262076616C696420617070290D0A0000D5
:10142000617070206E6F742065786973742C2077FA
:101430006169742E2E2E2028617070206E6576658D
:1014400072206572617365642026206E6F2076615C
:101450006C696420617070290D0A00006170702051
:101460006E6F742065786973742C20776169742EAF
:101470002E2E202861707020657261736564290DBD
:101480000A000000696170206661696C2C20706C34
:101490006561736520646F776E6C6F61642061674E
:1014A00061696E210D0A000010B50022D243074B7E
:1014B00007E0047854402406A40D1C59120A624027
:1014C000401C491EF5D2D04310BD0000CC040020C2
:1014D00030B50A4B0A4C002108460022C50702D04D
:1014E0004008584000E04008521C082AF6D38A0001
:1014F000491CA050FF29EFD930BD00002083B8ED72
:10150000CC040020002805D00022491E02D302701E
:10151000401CFAE77047034600B5C0B20A2802D162
:101520000D20FEF772FED8B2FEF76FFE184600BD22
:1015300010B50168074A114001225207914207D1B4
:101540004168054C21600068FEF7C4FD20688047B3
:1015500010BD00000000FE2F1800002072B6BFF37F
:101560004F8F04490248C860BFF34F8F00BFFDE7AB
:101570000400FA0500ED00E070B5FFF7DFFB0400A2
:1015800006D0044D2888844201D1FFF757FD2C80F6
:1015900070BD00000400002000252C46FFF7AEFDC2
:1015A000FFF70CFCFFF72CFD0E4E06271420FFF76B
:1015B0007DF8FFF7E1FF1420FFF77AFC641CA4B26A
:1015C000FA2C03D3002408A0FFF75CFA3078012836
:1015D00004D16D1CADB21E2D00D33770FFF7C4FED1
:1015E000E4E7000060020020776169742E2E2E0D62
:1015F0000A000000F8B5274824A10546FEF7C6FDFD
:10160000002802D0FFF7AAFFF8BD23A12846FEF765
:10161000BDFD04001CD0A07AE17A0002401885B21A
:1016200020460C300746FEF7CCFD00BA060AF878D3
:101630003602064310342046FEF7C3FD00BA020A04
:10164000E078120202433146284600F02FF8F8BD38
:1016500014A12846FEF79AFD0400F8D0207961799C
:101660000002401885B2A01DFEF7ABFD00BA010ACA
:10167000607A09020143A07AE27A0002801882B2FD
:1016800023460C33284600F049F8F8BD7265626FB6
:101690006F7400007C0200207570646174655F6186
:1016A000636B0000646174610000000070B5154652
:1016B00013460C460A460646014607A0FFF7E2F924
:1016C000154902204E80CD608C600870FFF728FB22
:1016D000FFF7FEFE70BD00007265637620757064D2
:1016E0006174655F61636B20287061636B6167651E
:1016F0005F6E756D3D25642C2066696C655F73694E
:101700007A653D25642C2066696C655F637263337E
:10171000323D2564290D0A0060020020FFB51E46F7
:101720000F460B4681B0054601461848039AFFF75D
:10173000A9F9174CA088401CA84204D015A0FFF7B7
:10174000A1F905B0F0BD30460399FFF7ADFE0146A3
:10175000B84206D017A0FFF795F9207C401C2074F2
:10176000EFE7002020740F2168024902401831463B
:10177000039AFFF701FBA088401C80B2A08061881B
:101780008842DED304202070DBE700001818000038
:10179000600200206E6F7420726563762072696744
:1017A0006874207061636B6167655F696E646578FA
:1017B0000D0A00006275665F6372633332206E6FDC
:1017C0007420657175616C20637263333221202847
:1017D0006275665F63726333323D2564290D0A00CA
:1017E0000080009600093D0000127A000024F400F9
:1017F0004086510100366E012000000017000000F5
:101800001B00000050460000E0220200180000000B
:10181000F0000000E80300007265637620757064D4
:101820006174655F6461746120287061636B6167D6
:10183000655F696E6465783D25642C207061636B1B
:101840006167655F6C656E6774683D25642C206315
:10185000726333323D2564290D0A00007C180000B4
:101860000000002020000000340B00009C18000045
:1018700020000020B00A0000440B000000093D00D9
:101880000000000000000000000000000000000058
:0C1890000000000000000000000000004C
:04000005000000C136
:00000001FF
