:020000040800F2
:1000000080190020DD000008FD0600083504000806
:1000100000000000000000000000000000000000E0
:10002000000000000000000000000000BD07000804
:100030000000000000000000FF060008BF070008E5
:10004000EF00000800000000EF000008EF000008CB
:10005000EF000008EF000008EF000008EF000008C4
:1000600000000000EF000008EF000008EF000008AB
:10007000EF000008EF000008EF000008000000009B
:10008000EF0000080000000000000000EF00000882
:1000900000000000EF000008EF000008EF0000087B
:1000A000EF000008EF000008EF000008D907000883
:1000B0002D08000800000000000000000000000003
:1000C0000348854600F078F800480047011400080E
:1000D0008019002080F3088870470000044880479A
:1000E00004480047FEE7FEE7FEE7FEE7FEE7FEE71F
:1000F000C9070008C100000830B50B4601460020C2
:100100002022012409E00D46D5409D4205D31D461D
:100110009540491B2546954040191546521E002D15
:10012000F1DC30BD03460B439B0703D009E008C94F
:10013000121F08C0042AFAD203E00B780370401C97
:10014000491C521EF9D27047D2B201E00270401C25
:10015000491EFBD270470022F6E710B513460A4647
:1001600004461946FFF7F0FF204610BD30B505469E
:100170002A460B4610781C78521C5B1C002801D0C4
:10018000A042F7D0002C03D0002802D06D1CEFE76E
:10019000284630BD421C0178401C0029FBD1801A42
:1001A00070470321001D401E037812021A43491EA6
:1001B000F9D5104670470000064C0125064E05E0B3
:1001C000E36807CC2B430C3C98471034B442F7D378
:1001D000FFF77AFF1C1700083C17000803494A691B
:1001E00001231B04184302434A6170470020024068
:1001F000044A5069F8239843C90001430248014367
:1002000051617047002002400200010030B50549ED
:100210004C6901252C434C610260BFF36F8F436032
:1002200030BD00000020024030B50B4C0023626955
:100230000125AD042A436261EFF3108272B620C932
:100240005B1C20C0DBB2402BF9D32069C003FCD477
:1002500082F3108830BD000000200240F8B505464A
:1002600000F0CCF8471901263604114C03E000F0E9
:10027000C5F8B84214D220693042F8D121690D483E
:1002800001400D48206103D00C4841600120F8BDB9
:1002900000F0B4F8451905E000F0B0F8A84201D329
:1002A0000320F8BD20694003F6D40020F8BD00000B
:1002B00000200240FA830000FB8300001C000020A5
:1002C00002480169022291430161704700E000E0A9
:1002D000F8B51F4E044630780F4601280AD0012099
:1002E0003070002070607D20C000FFF7B7FF00284D
:1002F00002D029E00220F8BD042161602268042AAE
:1003000003D0491F3960A56814E00846FFF766FF6F
:100310007D20C000FFF7A2FF16E029466068FFF7C6
:1003200067FF7D20C000FFF799FF002801D03D60E6
:1003300005E06D1CE268A1688918A942EDD805495D
:100340004A6902239A434A6100213170F8BD0000D6
:100350001C00002000200240054901204A69C30713
:100360001A434A614969002900DA002070470000F9
:1003700000200240F0B51FB4144C06462078154604
:1003800001280AD00120207000277D20C00067606E
:10039000FFF764FF002803D010E0022005B0F0BD95
:1003A000012E0DD029460198FFF73EFF7D20C000A9
:1003B000FFF754FF06494A69B2434A612770EDE7E7
:1003C0002A46039B0198FFF721FFEFE71C0000205E
:1003D00000200240064900204A69002A07DA054A3F
:1003E0008A60054A8A604969002900DA012070475D
:1003F0000020024023016745AB89EFCD014800682A
:10040000704700000400002002480168491C016098
:1004100070470000040000200548044941610021A4
:100420008161052101610721016170477F3E000064
:1004300000E000E0FEE7F0B500244CE00123A3401B
:100440001A4047D04B68012B01D0022B0FD18E6888
:100450008568134653435F00DF19BD4373431D4353
:100460008560CB684568534395431D4345600F69DC
:10047000C668134653435D005D19AE435F433E4378
:10048000C6604E68022E1FD1FF2A0ED817464A6951
:10049000066A94461A467A437A431701BF1ABE4346
:1004A00067467A43164306620EE0160A32467243E6
:1004B0004F6972437243BC461601B71A466ABE437F
:1004C00067467A43164346624A6806685343AE431A
:1004D0001E430660641C0A681346E340AED1002048
:1004E000F0BD000008B504494A6B02434A63496BFA
:1004F0000140009108BD00000010024010B57D21B0
:10050000C900FFF7F9FD0449401E486100208861D9
:100510000520086110BD000000E000E010B50446B1
:1005200000F00EF9206000F0EBF8606000F0F8F8E1
:10053000A06010BD014610B50020032913D1134A55
:10054000516903238907890F1B041943DB43C91829
:100550000AD001290BD0022911D000F0F1F800F0E7
:10056000CFF800F0DDF810BD00F0EAF810BD074943
:10057000403909684905C90FF8D0054810BDD1694F
:100580008907C90FFAD00120C00310BD40100240F6
:100590000024F400014908607047000008000020B2
:1005A00041680922D2029143416081682A22914325
:1005B0008160704702460E4B00200E499A4208D1D6
:1005C00001220B6B920313430B630B6B93430B637F
:1005D0007047094B9A4208D10122CB6A5204134357
:1005E000CB62CB6A9343CB62704701207047000017
:1005F000003801400010024000440040FEB50446AF
:1006000000680D46012738405CD12969A868EA696D
:10061000084369691143084321682B4A1140084384
:100620002060E96860680322120390430843606019
:10063000A969A068121190430843A060234884422E
:1006400003D10320FFF776FF06E02148844232D130
:100650006846FFF763FF029800282CD06E68002ED2
:1006600029D029680027EA690B2924D80123DB0354
:100670009A4213D109068A0D16498958FFF73CFDA5
:100680004000710840183146FFF736FD81B212482C
:1006900008400907490F0143E1600CE009068A0D93
:1006A0000C498958FFF728FD710840183146FFF7BB
:1006B00023FD80B2E0602888E16A80B2090909015F
:1006C0000143E1623846FEBDF369FFEF00380140A7
:1006D0000044004048160008F0FF000008B5064935
:1006E0000A690092421C00D0401C0A69D20300D55E
:1006F000401E0028F9D108BD00E000E0FEE7704789
:10070000054989688A093C210A400A400349895CF5
:10071000C906C90EC840704700100240781600088C
:1007200005498968054A4904490F8900515CC90691
:10073000C90EC8407047000000100240B8160008FB
:1007400010B50B4988683822104008280AD01028B4
:100750000AD0086801218004400F81400548FFF756
:10076000CBFC10BD044810BD00F008F810BD00001F
:10077000001002400024F40000127A0010B50D4A67
:10078000D0680D498007800F022802D0032800D1CD
:100790004910D068440FD0684006430FD068641CED
:1007A0004004400E4843591CFFF7A6FC2146FFF7C2
:1007B000A3FC10BD001002400024F400704700B5F7
:1007C000FFF722FE00BD000001200249C00688603C
:1007D0007047000000ED00E038B5104CE06980067D
:1007E000C00F11D020688006C00F0DD0606A0D497F
:1007F0000B4B0A889854521C90B20B4A08809042C6
:1008000001D30020088038BD1B2000F047F8E069C4
:1008100000904007F7D50420206238BD0038014021
:10082000380000200C0000209808000038B5104C5B
:10083000E0698006C00F10D020688006C00F0CD081
:10084000606A0D490B4B4A889854521C90B24880FC
:10085000322801D30020488038BD1C2000F01EF84B
:10086000E06900904007F7D50420206238BD000001
:1008700000440040D00800200C0000200FB410B548
:1008800003A9044B044A029800F056F810BC08BCB7
:1008900004B018478513000810000020002809DB69
:1008A000C106C90E0120884003490860BFF34F8F7D
:1008B000BFF36F8F7047000080E100E0002805DB88
:1008C000C106C90E01208840014908607047000038
:1008D00000E100E08307FF22DB0E9A408907090E42
:1008E0009940002808DB830809489B001B181868FA
:1008F00090430843186070470007000F08388308CA
:1009000004489B001B18D86990430843D86170477E
:1009100000E400E000ED00E002E008C8121F08C19A
:10092000002AFAD170477047002001E001C1121F70
:10093000002AFBD170470000FFB58DB004460025AA
:1009400006E025280AD0109A0F999047641C6D1C68
:1009500020780028F5D1284611B0F0BD00270121EC
:10096000484A009700E00743641C23780846203B70
:1009700098401042F7D120782E2817D10420074341
:100980006078641C2A280CD10E98641C02C800915F
:100990000E900BE000990A22514330394018641C34
:1009A00000902078014630390929F3D920780028B1
:1009B000D1D0642808D0692806D075281ED0109A96
:1009C0000F9990476D1C5BE00A200E99019001C9B8
:1009D0000E91002802DA40422D2102E0390504D5AB
:1009E0002B216A461172012103E0F90704D020216E
:1009F000F7E70BAE0B910DE00021FAE70A200E9904
:100A0000019001C90E91F7E70199FFF775FB3031AD
:100A1000761E31700028F7D103A8801B203001908A
:100A2000780701D5009801E00120009001998842E3
:100A300001DD401A00E000200027009006E002A837
:100A4000109AC05D0F9990476D1C7F1C0B988742D0
:100A5000F5DB04E0109A30200F9990476D1C009947
:100A6000481E00900029F5DC05E03078109A761CCD
:100A70000F9990476D1C0199481E01900029F4DCE4
:100A8000641C65E70928010004480549406888425C
:100A900001D00120704700207047000004090020A9
:100AA000AAAAAAAA70B5074D0024601900F022FA7C
:100AB000FF2801D0012070BD641CE4B2202CF4D3C7
:100AC000002070BD0048000804480549406888427D
:100AD00001D1012070470020704700000409002068
:100AE0005555555510B504490448FFF734FB0449E2
:100AF0000020088010BD0000980800003800002089
:100B00000C00002010B51921034800F0D5F9002091
:100B100000F00EF810BD00000038000800487047D3
:100B20000038000801480088704700000C000020D1
:100B300010B50549012804D00448486000F050F879
:100B400010BD0248C043F8E704090020AAAAAAAAD7
:100B5000004870473800002010B500F0B3FA10BD0F
:100B6000F8B500240E460546002A26D0500702D0CC
:100B7000D208D2000832D7081DE0E000315C8219AB
:100B8000507853790002084391781B02090401430D
:100B9000D0780006084311790B439179D279090482
:100BA000194313060B4300210A184B41284600F055
:100BB000A3F9641C0835A742DFD8F8BD70B5064D0F
:100BC000064E0024601900F095F93055641CA4B25B
:100BD000102CF7D370BD0000002800080409002085
:100BE000F8B51148002426460546012100F064F9B5
:100BF000F60816E00D48E200815C121850780002F9
:100C0000C317084391780904CF170143D0781F43D5
:100C10000206D3170A433B43284600F06DF9641CD3
:100C20000835A642E6D8F8BD0028000804090020CF
:100C30001FB5044600200090019002900AA2039084
:100C400007CA6B4607C36846FFF7A4FA80B2220AB8
:100C500069460A54401C80B20C54401C81B268465C
:100C600000F0ECF81FBD0000726571756573745F6C
:100C700064617461000000001FB50446002000900C
:100C8000019002900390032207A16846FFF74AFAF9
:100C90006846FFF77FFA81B268464454491C89B21E
:100CA00000F0CCF81FBD0000726574001FB5002075
:100CB0000090019002900390062206A16846FFF77B
:100CC00031FA6846FFF766FA81B2684600F0B6F876
:100CD0001FBD00007570646174650000F8B52C4D8F
:100CE00006462978284680882A4C022915D00329EF
:100CF00020D0042941D105202870FFF70FFFA968F3
:100D000000F012FBEA6801468A4237D10120FFF762
:100D1000B3FF0120FFF70CFF36E00321401C2970D0
:100D200080B2FFF785FFA888608020888019208026
:100D300019A02AE061880027884202D0022028708A
:100D400027802088FF21801980B2F53120808842D9
:100D500008D313A0FFF792FD287C401C287427803D
:100D600002202870287C052807D913A0FFF786FDEC
:100D7000052028700020FFF77FFFF8BD19A0FFF7BE
:100D80007DFD0020FFF778FF24A0FFF777FDF8BD79
:100D9000140900201800002073656E640000000034
:100DA000776169742064617461206F76657274691B
:100DB0006D650D0A000000007061636B616765205E
:100DC00065727220636E74206F7665726C696D69EE
:100DD000742C2073746F7020757064617465210DBC
:100DE0000A0000006372633332206E6F74206571F5
:100DF00075616C2C2063726333325F76616C75654C
:100E0000203D2025642C2066696C655F6372633326
:100E100032203D2025640D0A0000000073656E64D9
:100E2000207265740D0A000010B5FFF73FFF0249FC
:100E30000120087010BD00001409002070B50C4698
:100E40000A46014605480546FFF76CF90448214665
:100E500044602846FFF780FE70BD0000621100204C
:100E60002809002010B5FFF75DFE0C4C2060FFF74D
:100E70006FFE01462046083022680446FFF752F90B
:100E800000F0ECFA06492046FFF765F91E210548F7
:100E9000FFF761F9FFF726FE10BD000028090020CA
:100EA000320800006211002010B500F08DF800F04B
:100EB0001FF9FFF705FA10BD30B50D4685B00021CA
:100EC00004911F21C9064018C40AFFF783FA0220C3
:100ED000009004A9039502946846FFF7F9F90028E9
:100EE00004D0FFF739FA002005B030BDFFF734FA1F
:100EF0000120F9E70078704770B516461C46054694
:100F0000FFF768FA3246234629460120FFF732FAF6
:100F1000002803D0FFF720FA002070BDFFF71CFA6D
:100F2000012070BD38B51048012102680A430260F3
:100F300000680D4C084000900807403CE16B0143FD
:100F4000E163E16B0140009100F010F8FFF764FAF3
:100F5000616B202001436163616B0140009100F0EF
:100F60003DF800F0CFF838BD4010024010B51448ED
:100F7000016882151143016001684905C90FFBD062
:100F800081680F221202914381608168C908C900FB
:100F90008160382281681142FCD1816807221203E6
:100FA00091438160074C2046FFF7A8FA2046FFF7DF
:100FB000F1FA03484030416989088900416110BD58
:100FC000001002400024F40010B51B20FFF766FC5F
:100FD0000148FFF7EFFA10BD00380140F0B58FB0BF
:100FE000202106A8FFF7B7F818216846FFF7B3F8E5
:100FF00031480121026889030A4302600068084001
:101000000E900220FFF76EFA002440202B4F05942B
:1010100002260125009002940394694601960495E6
:101020003846FFF708FA8020059400900294039454
:101030006946019604953846FFF7FDF900211B200B
:10104000FFF748FC1B20FFF739FCE1204002079026
:101050000894069409940A940C940D940C20184C4E
:101060000B9006A92046FFF7C9FAA068C000C00887
:10107000A060A068072149068843A060206869072E
:10108000884320602046FFF78BFA206828432060C1
:10109000E0698002C00FFBD0E0694002C00FF7D0CA
:1010A000082020622068202108432060A06828438F
:1010B000A0600FB0F0BD00004010024000040050DE
:1010C0000038014010B50022084B08E0DC69240616
:1010D000E40FFBD004789C62521C92B2401C8A42FE
:1010E000F4D3D8694006C00FFBD010BD00380140D2
:1010F00010B51C20FFF7D2FB0148FFF75BFA10BDCB
:1011000000440040F0B58FB0202106A8FFF723F877
:1011100018216846FFF71FF831480121C26B4904C6
:101120000A43C263C06B08400E900120FFF7DAF952
:101130000125042000240595009002260520029434
:1011400003946946019604940007FFF774F9082791
:1011500005200097029403946946000701960595BF
:101160000494FFF768F900211C20FFF7B3FB1C2053
:10117000FFF7A4FBE120400207900894069409942D
:101180000A940C940D940C20164C0B9006A9204642
:10119000FFF734FAA068C000C008A060A06807216B
:1011A00049068843A0602068E10488432060204607
:1011B000FFF7F6F9206828432060E0698002C00F3D
:1011C000FBD0E0694002C00FF7D0276220682021E1
:1011D00008432060A0682843A0600FB0F0BD000065
:1011E000001002400044004070B5144C00252078E7
:1011F000134E06280FD005280CD1FFF765FC0028F8
:101200001AD010A0FFF73AFBFFF74EFE72B6304639
:1012100000F0C2F870BDFFF737FC00280AD0FFF7D6
:1012200041FC002801D00FA0ECE71DA0FFF726FB32
:10123000257070BD29A0F9E732A0F7E71409002056
:101240000038000869617020737563636565642CFC
:10125000206A756D7020746F206170702E2E2E0DB7
:101260000A0000006170702065786973742C206A30
:10127000756D7020746F206170702E2E2E20286185
:101280007070206E6576657220657261736564208A
:10129000262076616C696420617070290D0A000057
:1012A000617070206E6F742065786973742C20777C
:1012B0006169742E2E2E2028617070206E6576650F
:1012C00072206572617365642026206E6F207661DE
:1012D0006C696420617070290D0A000061707020D3
:1012E0006E6F742065786973742C20776169742E31
:1012F0002E2E202861707020657261736564290D3F
:101300000A000000696170206661696C2C20706CB5
:101310006561736520646F776E6C6F6164206167CF
:1013200061696E210D0A000010B50022D243074BFF
:1013300007E0047854402406A40D1C59120A6240A8
:10134000401C491EF5D2D04310BD00008011002082
:1013500030B50A4B0A4C002108460022C50702D0CE
:101360004008584000E04008521C082AF6D38A0082
:10137000491CA050FF29EFD930BD00002083B8EDF3
:10138000801100200349CA691206D20FFBD0C2B2F5
:101390008A6270470044004010B50168074A114056
:1013A00001225207914207D14168054C2160006833
:1013B000FEF790FE2068804710BD00000000FE2F61
:1013C0001400002072B6BFF34F8F04490248C86072
:1013D000BFF34F8F00BFFDE70400FA0500ED00E00A
:1013E00070B5FFF79FFB040006D0044D28888442A7
:1013F00001D1FFF737FD2C8070BD000000000020F8
:1014000000252C46FFF78EFDFFF7D8FBFFF70CFDFC
:101410000E4E06271420FFF761F9FFF7E1FF1420B5
:10142000FFF75CFC641CA4B2FA2C03D3002408A0D0
:10143000FFF724FA3078012804D16D1CADB21E2DBF
:1014400000D33770FFF7D0FEE4E700001409002056
:10145000776169742E2E2E0D0A000000F8B527481A
:1014600024A10546FEF782FE002802D0FFF7AAFF5E
:10147000F8BD23A12846FEF779FE04001CD0A07A0F
:10148000E17A0002401885B220460C300746FEF78C
:1014900088FE00BA060AF878360206431034204661
:1014A000FEF77FFE00BA020AE078120202433146DC
:1014B000284600F02FF8F8BD14A12846FEF756FE86
:1014C0000400F8D0207961790002401885B2A01D8F
:1014D000FEF767FE00BA010A607A09020143A07AAA
:1014E000E27A0002801882B223460C33284600F0CC
:1014F00049F8F8BD7265626F6F7400003009002012
:101500007570646174655F61636B00006461746130
:101510000000000070B5154613460C460A46064604
:10152000014607A0FFF7AAF9154902204E80CD60B9
:101530008C600870FFF7E6FAFFF70AFF70BD000045
:1015400072656376207570646174655F61636B209A
:10155000287061636B6167655F6E756D3D25642CF6
:101560002066696C655F73697A653D25642C206629
:10157000696C655F63726333323D2564290D0A002F
:1015800014090020FFB51E460F460B4681B00546E4
:1015900001461748039AFFF771F9164CA088401CC2
:1015A000A84204D014A0FFF769F905B0F0BD304699
:1015B0000399FFF7B9FE0146B84206D016A0FFF71F
:1015C0005DF9207C401C2074EFE7002020741D4949
:1015D000E80240183146039AFFF7C2FAA088401C7F
:1015E00080B2A08061888842DFD304202070DCE7CD
:1015F000D8160008140900206E6F74207265637697
:10160000207269676874207061636B6167655F69E8
:101610006E6465780D0A00006275665F63726333FD
:1016200032206E6F7420657175616C206372633354
:10163000322120286275665F63726333323D256410
:10164000290D0A000030000801000000020000001F
:101650000400000006000000080000000A0000006E
:101660000C000000100000002000000040000000FE
:1016700080000000000100000000000000000000E9
:10168000000000000000000000000000000000005A
:101690000000000000000000010000000200000047
:1016A0000300000004000000060000000700000026
:1016B0000800000009000000000000000000000019
:1016C0000000000000000000010000000200000017
:1016D00003000000040000007265637620757064EA
:1016E0006174655F6461746120287061636B616718
:1016F000655F696E6465783D25642C207061636B5D
:101700006167655F6C656E6774683D25642C206356
:10171000726333323D2564290D0A00003C1700082E
:10172000000000201C0000001809000858170008DD
:101730001C000020641900002809000800000000B7
:10174000000000000024F400000000000000000081
:08175000000000000000000091
:04000005080000C12E
:00000001FF
