:020000040800F2
:1028000078060020D12800081B450008174500085D
:1028100000000000000000000000000000000000B8
:10282000000000000000000000000000214500083A
:1028300000000000000000001F45000823450008BC
:10284000E3280008E3280008E3280008E32800083C
:10285000E3280008E3280008E3280008E32800082C
:10286000E3280008E3280008E3280008E32800081C
:10287000E3280008E3280008E3280008BD45000815
:10288000E3280008E3280008E3280008E3280008FC
:10289000E3280008E3280008E3280008E3280008EC
:1028A000E3280008E3280008E32800085D4C00083E
:1028B000B54C0008E3280008E328000803488546D3
:1028C00000F00CF900480047ED50000878060020A1
:1028D0000448804704480047FEE7FEE7FEE7FEE7BE
:1028E000FEE7FEE7AD450008BD28000830B50B4601
:1028F000014600202022012409E00D46D5409D42DA
:1029000005D31D469540491B25469540401915465F
:10291000521E002DF1DC30BD70B500242546002884
:1029200001DA01244042002901DA01254942FFF77A
:10293000DDFFAC4200D04042002C00D0494270BDC7
:10294000F0B51FB40646002082B005464024019130
:1029500000901BE0019922460F46304600F0ACF88B
:10296000049A059B801A994110D3104619462246B5
:1029700000F092F8361A8F4101972246012000217B
:10298000009F00F089F838184D4100902046641EE1
:102990000028DFDC019B00982946324607B0F0BDD5
:1029A000F0B51FB486B00020009001900290069808
:1029B000069980B204900798090C02040014114390
:1029C00007900027089D099806913E463C460390D3
:1029D0000398A9B20204000C039004982D0C15432F
:1029E00048430021224600F057F8C71971411034BE
:1029F0000E46402CECDB3846029A00F04DF8009A67
:102A0000019B80180090594102980191103002906A
:102A10004028CCDB00980BB0F0BD03460B439B076E
:102A200003D009E008C9121F08C0042AFAD203E043
:102A30000B780370401C491C521EF9D27047D2B269
:102A400001E00270401C491EFBD270470022F6E7ED
:102A500010B513460A4604461946FFF7F0FF204614
:102A600010BD30B505462A460B4610781C78521C1E
:102A70005B1C002801D0A042F7D0002C03D0002816
:102A800002D06D1CEFE7284630BD421C0178401C87
:102A90000029FBD1801A704710B5202A04DB0146BB
:102AA000203A9140002010BD914020239C1A0346FB
:102AB000E3401943904010BD10B5202A04DB0846BE
:102AC000203AD040002110BD0B46D340D0402024F6
:102AD000A21A91400843194610BD0000064C01257A
:102AE000064E05E0E36807CC2B430C3C98471034B6
:102AF000B442F7D3FFF7E6FE98520008B852000838
:102B00000146002901D1012070472520405C0228A0
:102B100008D00420C86300BF00222420425400BF14
:102B20000120F1E7086800680E2290430A681060EF
:102B3000486C0068FF22013290434A6C10600868BC
:102B40000068400840000A681060124840681C2372
:102B50000A6C1A400123934018430E4A50608A6C55
:102B6000C86C5060086D002809D0086D0068FF220D
:102B7000013290430A6D10604A6D886D50600122E9
:102B80002520425400BF00222420425400BF0020D0
:102B9000BAE700000000024070B504460025252079
:102BA000005D022803D00420E06301253AE020689C
:102BB00000680E218843216808602068006840088A
:102BC000400021680860606C0068FF210131884383
:102BD000616C0860144840681C22216C114001227D
:102BE0008A40104310494860A16CE06C4860206D39
:102BF000002809D0206D0068FF2101318843216D34
:102C00000860616DA06D486001212520015500BF5D
:102C100000212420015500BFA06B002802D02046CF
:102C2000A16B8847284670BD0000024070B504467D
:102C300000F0FAF806462546681C002802D0054830
:102C400000782D1800BF00F0EFF8801BA842FAD3DF
:102C500070BD00000800002070B503460022D5E0DA
:102C6000012696400C683440002C71D04D68012D2F
:102C700008D04D68022D05D04D68112D02D04D6849
:102C8000122D18D1986856000325B5400646AE436C
:102C900030465600CD68B5402843986058680125F5
:102CA00095400646AE43304610264D6835402D0906
:102CB000954028435860D86856000325B54006461D
:102CC000AE43304656008D68B5402843D8604D6805
:102CD000022D02D04D68122D15D1D508AE001D462B
:102CE0002035A8595507EE0E0F25B5400646AE43D0
:102CF00030465607F60E0D69B5402843D508AD009D
:102D00001E4620367051186856000325B540064609
:102D1000AE4330460D79AD07AD0F5600B5402843A0
:102D20001860012636074D683540B5426DD13A4DE1
:102D30009608B600A8599507EE0E0F25B540064631
:102D4000AE43304605252D07AB4202D1002510E0E9
:102D50005BE0324DAB4201D101250AE0304DAB4280
:102D600001D1022505E02F4DAB4201D1032500E042
:102D700005259607F60EB5402843274D9608B60060
:102D8000A851254D203528680546A543284601262B
:102D900036044D683540B54202D1054625432846E4
:102DA0001D4D2035286068680546A5432846012644
:102DB00076044D683540B54202D105462543284684
:102DC000154D20356860144D603D28680546A543C3
:102DD0002846012636054D683540B54202D10546E4
:102DE000254328460C4D603D286068680546A5438C
:102DF0002846012676054D683540B54202D1054684
:102E000025432846044D603D6860521C0D68D5403E
:102E1000002D00D024E770BD60180240000400506F
:102E200000080050000C0050014800687047000086
:102E30000000002003480068034909784018014950
:102E400008607047000000200800002010B5002432
:102E500008480068FF210131084306490860002046
:102E600000F00AF8002801D0012401E000F034F855
:102E7000204610BD00200240F8B504460025134846
:102E8000007800281ED0114801787D20C000FFF78F
:102E90002DFD074639460E480068FFF727FD064618
:102EA00000F066FE00280BD1042C07D20022214638
:102EB000401E00F049F80748046004E0012502E0E4
:102EC000012500E001252846F8BD0000080000208B
:102ED0000C0000200400002008B500BF1048006866
:102EE000012108430E49086008460068C007C00F6A
:102EF000009000BF00BF00BF09484038C06B890583
:102F0000084307494039C8630846C06B09040840B4
:102F1000009000BF00BF0320400200F01DFE08BD6E
:102F2000401002400146002909DB00BF00BFCB066C
:102F3000DB0E01229A40034B1A6000BF00BF00BFA6
:102F40007047000000E100E070B504460D461646EB
:102F50002946204601F0FEFE70BD000070B5044613
:102F60001148006803214902884320430E49086044
:102F70004815844216D10D49096806225143084676
:102F80000B49FFF7B3FC451C05E0002D01D06D1E79
:102F900001E0032070BD0448406901218902084016
:102FA0008842F2D00020F5E7007000400C000020BD
:102FB00040420F00FEB50446002700200290012188
:102FC00049042068084088427BD100200190B34822
:102FD000C06BC902084000280ED100BFAF48C06BCB
:102FE0000843AE49C8630846C06B09040840009016
:102FF00000BF00BF01200190A9480068FF210131F6
:103000000843A7490860FFF70FFF064606E0FFF7F1
:103010000BFF801B022801D9032706E0A0480068A7
:10302000FF21013108400028F1D000BF002F4BD113
:103030009A484030C569032109020D40002D1AD07D
:10304000206BA84217D095484030C0698843054698
:1030500092484030C0690121090408438F4940313A
:10306000C8610846C0690121090488438B49403181
:10307000C8610846C561E807C00F002813D0FFF7F4
:10308000D3FE064607E0FFF7CFFE801B8549884246
:1030900001D9032706E081484030C0690221084079
:1030A0000028F0D000BF002F0CD17C484030C06910
:1030B000032109028843216B084378494031C861E4
:1030C00003E00DE0029700E002970198012806D185
:1030D0007248C06B0121090788437049C86300BF6B
:1030E0002078C007C00F002809D06C4840304069E4
:1030F00080088000616808436849403148610221C6
:1031000020680840022809D16448403040690C21F9
:103110008843A16808436149403148611021206813
:10312000084010280AD15D484030406903218902D7
:103130008843E16808435949403148610121490207
:103140002068084088420AD1544840304069032131
:1031500089048843A16908435049403148610121ED
:1031600089022068084088420AD14C4840304069B2
:10317000032109058843E169084348494031486112
:1031800020212068084020280AD144484030406966
:1031900003210903884321690843404940314861BC
:1031A0000121890320680840884213D13B48403000
:1031B000406980008008216A0843384940314861ED
:1031C0000906206A884205D13448C068891308433B
:1031D0003249C8600121C90420680840884209D1E9
:1031E0002E484030406940218843616A08432B499A
:1031F000403148610121490520680840884214D1C6
:1032000026484030406949008843A16A0843234961
:103210004031486101218905A06A884205D11F48D3
:10322000C068890008431D49C860012189052068DC
:103230000840884213D119484030406989008843CA
:10324000E16A084315494031486101210906E06AF5
:10325000884204D11148C06808431049C860012160
:10326000C90220680840884215D10C4840304069A6
:103270000321890388436169084308494031486153
:10328000012189036069884205D10448C06889002A
:1032900008430249C8600298FEBD000000100240C9
:1032A000007000408813000070B504460D46002CE5
:1032B00001D1012070BD6B4800684007400FA84253
:1032C00018D268480068C008C000284365490860F3
:1032D000FFF7AAFD064607E0FFF7A6FD801B62493F
:1032E000884201D90320E5E75E4800684007400FA7
:1032F000A842F1D1022120680840022815D10421FA
:1033000020680840042807D158488068072109032D
:103310008843401855498860544880680F21090245
:103320008843A1680843514988602078C007C00FCE
:10333000002854D06068012808D14C480068012159
:103340004904084000282ED10120B3E76068022814
:1033500008D146480068012149060840002822D1CA
:103360000120A7E76068002808D1404800680121D3
:1033700089020840002816D101209BE760680328D5
:1033800008D13A484030006A0221084000280AD19A
:1033900001208FE735484030C069022108400028ED
:1033A00001D1012086E731488068C008C00061680B
:1033B00008432E498860FFF737FD064607E0FFF710
:1033C00033FD801B2849884201D9032072E7274832
:1033D0008068382108406168C9008842EFD12148DF
:1033E00000684007400FA84218D91E480068C0086E
:1033F000C00028431B490860FFF716FD064607E09A
:10340000FFF712FD801B1849884201D9032051E7BC
:10341000144800684007400FA842F1D104212068F9
:103420000840042808D1114880680721090388430F
:10343000E16808430D49886000F03AF80B49896853
:103440000F2212021140090A8900094A515CC9067B
:10345000C90EC8400749086007480068FFF70CFD1F
:1034600028E70000002002408813000000100240FE
:10347000145200080C0000200400002001480068DD
:10348000704700000C00002000B5FFF7F7FF064969
:103490008968072212031140090B8900034A515C15
:1034A000C906C90EC84000BD0010024054520008B1
:1034B000FEB5354880683821084000280DD13248D3
:1034C000006809020840C10A0120884000902F4886
:1034D0000099FFF70BFA044654E02B488068382126
:1034E0000840082801D12A4C4CE027488068382140
:1034F0000840102834D12448C0688607B60F2248F7
:10350000C068702108400009401C0190022E0FD0B5
:10351000032E0CD11E480199FFF7E8F91A49C96832
:103520007F2212021140090A484305460DE000BF00
:1035300016480199FFF7DAF91349C9687F22120288
:103540001140090A4843054600BF00BF0E48C06845
:10355000400F471C39462846FFF7C8F9044611E0DA
:103560000948806838210840202801D1840209E0F8
:103570000548806838210840182802D17D2424029B
:1035800000E000242046FEBD001002400024F400AC
:1035900000127A00FEB50446002C01D10120FEBDC8
:1035A0002078C007C00F00286FD0F74887683821FF
:1035B0000F40C0688607B60F102F01D1032E01D02F
:1035C000082F0BD1F0480068012149040840002869
:1035D0005BD06068002858D10120E0E700BF0121DE
:1035E00009046068884205D1E74800680843E64955
:1035F000086021E005210904606888420ED1E24894
:103600000068012189040843DF4908600846006812
:10361000012109040843DC4908600DE0DA4800682C
:10362000012109048843D84908600846006801213F
:1036300089048843D449086000BF6068002812D01C
:10364000FFF7F2FB054606E0FFF7EEFB401B6428A0
:1036500001D90320A3E7CC480068012149040840B0
:103660000028F1D011E0FFF7DFFB054606E0FFF789
:10367000DBFB401B642801D9032090E7C2480068A7
:103680000121490408400028F1D1022120680840A6
:10369000022873D1BC488068382108400746BA48E0
:1036A000C0688607B60F102F01D1022E01D0002F5F
:1036B00036D1B5480068012189020840002804D0AD
:1036C000E068002801D1012069E7AF4840687F2108
:1036D00009028843616909020843AB494860002F29
:1036E00016D1084600680721C902884321690843AA
:1036F000A5490860084600680722D2021040C20AA5
:10370000012090400146A148FFF7F0F8A049086069
:10371000A0480068FFF7B0FB002849D001203EE731
:10372000E06800282BD0984800680721C902884328
:1037300021690843944908600846006889150843D0
:1037400091490860FFF770FB054606E0FFF76CFB48
:10375000401B022801D9032021E78B480068012182
:10376000890208400028F1D0874840687F2109027B
:1037700088436169090208438349486018E0824828
:103780000068FF21013188437F490860FFF74CFB47
:10379000054606E0FFF748FB401B022801D903203D
:1037A000FDE6794800680121890208400028F1D12E
:1037B000082120680840082849D1734880683821CA
:1037C000084018280BD170484030006A0221084098
:1037D00000283CD0A069002839D10120DFE6A0698B
:1037E00000281AD068484030006A01210843664921
:1037F00040310862FFF718FB054606E0FFF714FBAF
:10380000401B022801D90320C9E65F484030006A06
:10381000022108400028F1D019E05B484030006ADE
:1038200040084000584940310862FFF7FDFA05465C
:1038300006E0FFF7F9FA401B022801D90320AEE6A3
:1038400051484030006A022108400028F1D104218B
:103850002068084004287CD1002001904A488068F4
:103860003821084020280BD147484030C069022148
:10387000084000286ED0A06800286BD101208EE699
:103880004148C06B010F01208843002810D000BFC1
:103890003D48C06B0121090708433B49C8630846FE
:1038A000C06B09040840009000BF00BF01200190D8
:1038B00039480068FF2101310840002816D13648F8
:1038C0000068084334490860FFF7AEFA054606E091
:1038D000FFF7AAFA401B022801D903205FE62E4811
:1038E0000068FF21013108400028F1D000BFA06826
:1038F000012808D124484030C069012108432249E9
:103900004031C86120E0A06805280FD11E48403032
:10391000C069042108431C494031C8610846C06998
:103920000121084318494031C8610DE01648403074
:10393000C0694108490014484030C161C069042190
:10394000884311494031C86100BFA068002816D0E3
:1039500001E040E03EE0FFF767FA054607E0FFF7C9
:1039600063FA401B0D49884201D9032017E6064837
:103970004030C069022108400028F0D01EE0FFF767
:1039800053FA054614E00000001002400024F40041
:103990000C0000200400002000700040881300008C
:1039A000FFF742FA401B6849884201D90320F6E537
:1039B0006648C069022108400028F1D10198012819
:1039C00008D162484038C06B0121090788435F492C
:1039D0004039C86300BFE06900285CD05B484038CC
:1039E00080683821084010286FD0E069022853D140
:1039F0005648403800680121090688435349403938
:103A00000860FFF711FA054606E0FFF70DFA401BC4
:103A1000022801D90320C2E54C4840380068012142
:103A2000490608400028F0D1616A206A0843A16A6B
:103A300009020843E16A0843216B0843616B0843AC
:103A400042494039C968424A114008433F49403918
:103A5000C860084600680121090608433B4940390F
:103A600008600846C0680904084338494039C860FE
:103A7000FFF7DAF9054606E0FFF7D6F9401B022802
:103A800001D903208BE531484038006801214906FF
:103A900008400028F0D054E02C484038006801214C
:103AA000090688432949403908600846C0688008EB
:103AB0008000C8600846C06826490840234940394C
:103AC000C860FFF7B1F9054607E00FE0FFF7ACF972
:103AD000401B022801D9032061E51C4840380068DA
:103AE0000121490608400028F0D12AE0E0690128B8
:103AF00000D154E515484038C668B107890F206ADF
:103B000081421CD170203040616A884217D17F20E9
:103B100000023040A16A0902884210D11F204004EF
:103B20003040E16A88420AD1072040063040216BCC
:103B3000884204D1710F4907606B814201D0012096
:103B40002DE500202BE50000881300004010024006
:103B50008C80C111FFFFFEEE044909680322520266
:103B600091430143014A1160704700000000014089
:103B700070B504462546681E0949884201D90120CE
:103B80000CE0681E074948610321081F01F0E2F8B4
:103B900000200449886107200861002070BD0000F2
:103BA000FFFFFF0000E000E070477047704770477C
:103BB00010B504462068006902210840400800282A
:103BC0001CD02068C06808404008002816D0481F54
:103BD0002168086101202077206880698007800FB4
:103BE000002803D02046FFF7E2FF05E0204600F062
:103BF000DBF8204600F0D9F8002020772068006923
:103C000004210840800800281DD02068C0680840B2
:103C10008008002817D0C843216808610220207757
:103C200020688069032109020840002803D020464B
:103C3000FFF7BDFF05E0204600F0B6F8204600F093
:103C4000B4F8002020772068006908210840C008E7
:103C500000281CD02068C0680840C008002816D082
:103C6000C84321680861042020772068C069800764
:103C7000800F002803D02046FFF799FF05E020467B
:103C800000F092F8204600F090F80020207720689D
:103C9000006910210840000900281DD02068C06874
:103CA00008400009002817D0C8432168086108208F
:103CB00020772068C069032109020840002803D04A
:103CC0002046FFF774FF05E0204600F06DF820461F
:103CD00000F06BF80020207720680069C007C00F53
:103CE00001214840484000280CD02068C0680840A6
:103CF00048404840002805D0C81E21680861204679
:103D000000F054F82068006980210840C0090028AC
:103D10000BD02068C0680840C009002805D0C843FF
:103D2000216808612046FFF740FF20680069FF21F5
:103D300001310840000A00280CD02068C0688021AA
:103D40000840C009002805D01648216808612046AF
:103D5000FFF72AFF206800694021084080090028F9
:103D60000BD02068C06808408009002805D0C843EF
:103D700021680861204600F037F82068006920219A
:103D80000840400900280BD02068C068084040095E
:103D9000002805D0C843216808612046FFF706FFC8
:103DA00010BD0000FFFEFFFF7047704710B50446CE
:103DB000084884420CD108480088401C80B206495B
:103DC00008800A2804D10020088004A000F09EFF8B
:103DD00010BD0000C00100201800002074696D654E
:103DE00072320D0A000000007047014600BF8020BB
:103DF000405C012801D102207047012380204354F8
:103E000000BF2423842043500868026808680068C3
:103E1000400840000B68186001235B071046984378
:103E20000246002048660868026020238420435030
:103E300000BF00238020435400BF0020DCE7704710
:103E4000704770B504460D4600BF8020005D012814
:103E500001D1022070BD01218020015500BF242125
:103E600084200151206806682068006840084000EE
:103E70002168086020688068072149068843284334
:103E800021688860204600F0A1FB206806602021A0
:103E90008420015100BF00218020015500BF002077
:103EA000D8E770B504460D4600BF8020005D0128AC
:103EB00001D1022070BD01218020015500BF2421C5
:103EC000842001512068066820680068400840008E
:103ED0002168086020688068C000C0082843216805
:103EE0008860204600F072FB206806602021842054
:103EF000015100BF00218020015500BF0020D9E7FB
:103F00007047704770470000FEB504462068C569D9
:103F10002068066820688768D34828400290029885
:103F2000002813D12020284000280FD02020304026
:103F3000002804D1012000073840002806D0206F57
:103F4000002802D02046216F8847FEBD0298002835
:103F50007ED0C6483840002803D1C54830400028EC
:103F6000F6D0E807C00F00280DD0FF200130304008
:103F7000002808D00120216808628C200059012106
:103F800008438C2108510220284000280CD0F80753
:103F9000C00F002808D00220216808628C20005938
:103FA000042108438C2108510420284000280CD00B
:103FB000F807C00F002808D00420216808628C2070
:103FC0000059022108438C2108510820284000286C
:103FD00010D020203040002803D1A44838400028C9
:103FE00008D00820216808628C2000590821084365
:103FF0008C2108510120C002284000280ED0012049
:1040000080063040002809D00120C00221680862E3
:104010008C200059202108438C2108518C20005904
:1040200000284DD02020284000280ED020203040ED
:10403000002804D1012000073840002805D0206F57
:10404000002802D02046216F88478C20005900E0CC
:1040500037E001902068806840210840402804D063
:10406000282101980840002824D0204600F0B0FB09
:104070002068806840210840402817D12068806867
:10408000884321688860E06F00280BD07948E16F91
:104090008863E06FFEF780FD002811D0E06F816B30
:1040A00088470DE02046FFF72DFF09E02046FFF787
:1040B00029FF05E02046FFF725FF00218C20015154
:1040C00043E7E06E01287CD11020284000287CD0F6
:1040D00010203040002878D0102021680862206825
:1040E000806840210840402840D1E06F0068406867
:1040F00080B200900098002837D05C20015B0098C7
:10410000814232DD5E2100980853E06F006800684C
:104110002021084000281FD120680068C90088437A
:104120002168086020688068400840002168886035
:104130002068806840218843216888602021882089
:1041400001510020E0662068006810218843216842
:104150000860E06FFEF7D4FC5C20025B5E20005B31
:10416000101A81B22046FFF76AFEEEE65C20015B82
:104170005E20005B081A80B200905E20005B002881
:1041800022D0009800281FD020680068FF2121312C
:10419000884321680860206880683449C943084022
:1041A000216888602021882001510020E066206776
:1041B0002068006810218843216808602046009923
:1041C00000E002E0FFF73BFEBFE6012000052840CB
:1041D00000280CD0012080053840002807D001209D
:1041E0000005216808622046FFF78BFEADE68020BF
:1041F000284000280FD080203040002804D1012022
:10420000C0053840002806D0606F002802D0204644
:10421000616F884799E640202840002807D0402059
:104220003040002803D0204600F0F2FA8DE601204D
:10423000C0052840002808D0012080073040002811
:1042400003D02046FFF75CFE7FE6012000062840F1
:10425000002807D0F00FC007002803D02046FFF742
:10426000EFFD72E600BF70E60F08000001000010CD
:1042700020010004B947000810B50446002C01D104
:10428000012010BDA069002800D000E000BF8420FC
:104290000059002805D1002180200155204600F05A
:1042A0002DF8242184200151206800684008400036
:1042B00021680860204600F0BDFA012800D1E0E73F
:1042C000A06A002802D0204600F0C2F920684068A9
:1042D0000921C902884321684860206880682A2132
:1042E00088432168886020680068012108432168AC
:1042F0000860204600F024FAC3E7000010B586B03D
:104300000446142101A8FEF7A1FB3D49206888421C
:1043100037D100BF3B480068012189030843394970
:10432000086008460068012189030840009000BF2A
:1043300000BF00BF33484038406B0121084331497A
:10434000403948630846406BC007C00F009000BF6B
:1043500000BF032040020190022002900020039041
:1043600004900120059001A905200007FEF774FCC8
:104370001B20FEF7D7FD002202211B20FEF7E4FDE3
:104380003BE021492068884237D100BF1D484038B2
:10439000C06B0121490408431A494039C8630846E3
:1043A000C06B012149040840009000BF00BF00BF5E
:1043B00014484038406B0121084312494039486392
:1043C0000846406BC007C00F009000BF00BF0C2024
:1043D000019002200290002003900490012005909B
:1043E00001A905200007FEF737FC1C20FEF79AFD07
:1043F000012202211C20FEF7A7FD06B010BD00001F
:10440000003801404010024000440040FFB583B036
:1044100004460D46174684200059202878D1002DE7
:1044200001D0002F02D1012007B0F0BD0121090306
:10443000A068884208D12069002805D1E807C00F8C
:10444000002801D00120EFE700BF8020005D012897
:1044500001D10220E8E701218020015500BF0021A1
:104460008C200151212184200151FEF7DDFC0190B7
:10447000542007535620075301210903A06888429E
:1044800005D12069002802D10026029502E02E46BF
:104490000020029000BF00218020015500BF21E0D4
:1044A00006980090002280212046019B00F072FBBC
:1044B000002801D00320B7E7002E09D10298008818
:1044C000C005C00D216888620298801C029003E03C
:1044D000307821688862761C5620005B401E81B2CD
:1044E000562001535620005B0028D9D10698009031
:1044F000002240212046019B00F04CFB002802D006
:10450000032091E704E020218420015100208BE763
:10451000022089E7704700BFFEE700BFFEE7704753
:10452000704710B5FEF786FC10BD00B59FB038216E
:1045300011A8FEF78BFA00200D900E900F901090AE
:1045400034216846FEF782FA01204002FEF706FD9C
:1045500002201190C0011490002015904020169068
:10456000022018900221199100211A9108211B9113
:1045700001041C9101061D9101071E9111A8FFF76E
:1045800009F807200D9002200E9000200F90109047
:1045900002210DA8FEF788FE032000900020019064
:1045A00002906846FEF706FD1FB000BD01480249B3
:1045B000886070470028000800ED00E010B5024850
:1045C000FFF7F6FA10BD0000C0010020F0B585B07D
:1045D00004461BA103C9039102901BA103C90191C9
:1045E0000090606E002805D101216A2001536820E7
:1045F000015322E0082708220492206880680721DE
:1046000049060840450E20688068460F6A46915D5D
:1046100002AA935D049A53431846FEF77DF981B2CE
:104620006A2001536A46515D02AA525D7A431046E0
:10463000FEF772F981B26820015305B0F0BD0000A9
:10464000010101030701000008040204080101013F
:10465000018DC907C90F002908D0016849680122E6
:1046600052049143C26A1143026851600222816A76
:104670001140022907D101684968D2039143026BB6
:104680001143026851600422816A1140042907D154
:104690000168496812049143426B114302685160FA
:1046A0000822816A1140082907D10168496812036C
:1046B0009143826B1143026851601022816A11405C
:1046C000102907D10168896812029143C26B114316
:1046D000026891602022816A1140202907D1016877
:1046E000896812029143026C114302689160402272
:1046F000816A1140402915D10168496892039143AC
:10470000426C11430268516001221205416C9142D2
:1047100008D101684968032252059143826C114314
:10472000026851608022816A1140802907D10168A6
:10473000496812039143C26C11430268516070478B
:1047400038B5044600218C200151FEF76DFB05466B
:10475000206800680821084008280BD115482B461E
:10476000002289040090204600F014FA002801D0AD
:10477000032038BD206800680421084004280BD1BC
:104780000C482B46002209050090204600F002FA52
:10479000002801D00320ECE720218420015188204B
:1047A00001510020E06600BF00218020015500BFBC
:1047B0000020DEE7FFFFFF0170B50546AC6A00216F
:1047C0005E200153562001532046FFF79BFB70BD2E
:1047D00001680968FF222132914302681160016873
:1047E00089680A4A114002689160C16E012905D1A9
:1047F0000168096810229143026811602022882113
:104800000A500021C166016770470000FEFFFFEFFC
:1048100010B504462068006840218843216808607C
:10482000202184200151002060672046FFF772FE9E
:1048300010BD0000F0B58DB0044600200590C949B8
:104840002068884200D100E000BF2169A0680843C9
:1048500061690843E16908430790606E079908435E
:10486000079020680068C0490840079908432168FC
:10487000086020684068032109038843E168084311
:1048800021684860A0690790B6492068884203D033
:10489000206A07990843079020688068B349084058
:1048A00007990843216888602068C06A00090001F0
:1048B000616A08432168C86200BFAD492068884228
:1048C00017D1AC4840698007800F002806D0012826
:1048D00008D0022804D0032808D105E0002507E00D
:1048E000022505E0042503E0082501E0102500BFAE
:1048F00047E0A1492068884217D19E4840690C21B1
:104900000840002806D0042808D0082804D00C2825
:1049100008D105E0002507E0022505E0042503E0B5
:10492000082501E0102500BF2BE09449206888424B
:1049300001D1002525E092492068884201D1002557
:104940001FE08849206888421AD18A4840690321BB
:1049500089020840002808D001218902401A08D0A5
:10496000401A04D0401A08D105E0002507E00225CE
:1049700005E0042503E0082501E0102500BF00E064
:10498000102500BF77492068884263D1002D06D0EA
:10499000022D08D0042D08D0082D0DD109E0FEF716
:1049A00073FD06460CE0774E0AE0FEF781FD0646F1
:1049B00006E00126F60303E000260120059000BF73
:1049C00000BF002E14D0606A40006F4A115A304672
:1049D000FDF78CFF04906068410041180498814203
:1049E00004D8606801030498814202D20120059036
:1049F000ADE0606A40006449085A02460023019015
:104A000030461946FDF79CFFFF230133002209932E
:104A100008920A910B901A46089BFDF7C1FF626845
:104A200052080023801859410391029060680246A1
:104A300001900298FDF784FF0746032109028F4287
:104A400005D35248874202D82068C7607FE0012022
:104A500005907CE00121C903E069884241D1002D25
:104A600006D0022D08D0042D08D0082D0DD109E064
:104A7000FEF70AFD06460CE0424E0AE0FEF718FD7E
:104A8000064606E00126F60303E000260120059015
:104A900000BF00BF002E5AD0606A40003A4A115A47
:104AA0003046FDF723FF4000616849084018039035
:104AB0006168FDF71BFF87B2102F0FD33448874280
:104AC0000CD833480F38384006903807400F069905
:104AD0000843069006982168C86038E001200590D8
:104AE00035E0002D06D0022D08D0042D08D0082D69
:104AF0000DD109E0FEF7C8FC06460CE0214E0AE0A5
:104B0000FEF7D6FC064606E00126F60303E0002683
:104B10000120059000BF00BF002E18D0606A400041
:104B2000194A115A3046FDF7E1FE616849084018FC
:104B300003906168FDF7DAFE87B2102F05D31448A1
:104B4000874202D82068C76001E00120059001215A
:104B50006A20015368200153002020676067059890
:104B60000DB0F0BD00800040F369FFCFFFF4FF11EE
:104B7000003801404010024000440040004800401E
:104B8000004C00400024F400F4510008FFFF0F0027
:104B9000FFFF0000FFB581B004460D4617460A9E90
:104BA0004FE0701C00284CD0FEF73EF90499401AE3
:104BB000B04201D8002E19D120680068FF21A13130
:104BC00088432168086020688068400840002168A8
:104BD00088602021842001518820015100BF0021DC
:104BE0008020015500BF032005B0F0BD206800689B
:104BF00004210840002824D02068C06949020840E8
:104C0000C00A00281DD00846216808622068006894
:104C1000FF21A1318843216808602068806840082E
:104C200040002168886020218420015188200151A2
:104C30008C20015100BF00218020015500BF0320BE
:104C4000D2E72068C0692840A84201D1012000E0D5
:104C50000020B842A5D00020C6E7000008B500201B
:104C6000009010480068C0692021084040090028D1
:104C700014D00D48406AC1B20091684601780B48D3
:104C800002880088401C094B188009488154184646
:104C90000088322802DB0020194608800148FFF70F
:104CA00033F908BD3800002000380140140000200E
:104CB000C800002008B50020009010480068C069B6
:104CC000202108404009002814D00D48406AC1B294
:104CD0000091684601780B4802880088401C094B07
:104CE00018800948815418460088322802DB0020C9
:104CF000194608800148FFF707F908BDFC000020AD
:104D000000440040160000208C0100200FB410B5B4
:104D100003A9044B044A029800F067F810BC08BCD1
:104D200004B01847814F0008100000200FB410B5E0
:104D300004A9074B02AA039800F057F8044602A9F9
:104D4000002000F0BBF8204610BC08BC04B0184797
:104D5000BD4E000810B5002819DB1A4A03231B02B8
:104D6000D21883089B00D2588307DC0EFF23A34090
:104D70009A438B071B0E8407E40EA3401A43114B82
:104D8000032424021B198408A4001A5118E00E4AB7
:104D900003071B0F083B9B089B00D2588307DC0EC0
:104DA000FF23A3409A438B071B0E8407E40EA34006
:104DB0001A43054B0407240F083CA408A4001A5109
:104DC00010BD000000E100E01CED00E002E008C8BA
:104DD000121F08C1002AFAD170477047002001E075
:104DE00001C1121F002AFBD17047FFB581B00546F3
:104DF000002706E025280AD0049A039990476D1CE5
:104E00007F1C28780028F5D1384605B0F0BD002277
:104E100069786D1C10462E2913D1697804226D1C07
:104E20002A2909D102996D1C01C9029109E00A23BE
:104E30005843303808186D1C29780B46303B092B35
:104E4000F5D92B78002BDFD0632B07D0732B10D034
:104E5000049A1846039990477F1C2DE002996C46EE
:104E60000B782370091D0291002161706E460121AB
:104E700004E0029940C902910021C94352070AD5B2
:104E8000002400E0641C84420DDA8C42FADB325DBF
:104E9000002AF7D107E0002400E0641C8C42FCDB10
:104EA000305D0028F9D13F1904E03078049A761C6F
:104EB00003999047641EF8D26D1CA2E70A68531C40
:104EC0000B601070704710B5FDF7C0FFFFF72DFBAA
:104ED00000F002F862B610BD10B516481649086019
:104EE000E12040024860002113488160C1600161F7
:104EF0000C21416100218161C16101624162002098
:104F00000D4988620846FFF7B7F900210A48FEF705
:104F1000C8FF00210848FEF794FF0748FEF765FF29
:104F200005480068006820210843034909680860B3
:104F300010BD000000440040FC00002070B5044695
:104F40000D46034B2A4621460248FFF75FFA70BD23
:104F5000FFFF0000FC00002010B56C210548FDF7A4
:104F600075FD32210448FDF771FD002003490880DA
:104F700010BD00000C0200208C0100201600002053
:104F800013B50C46034B012269460348FFF73EFA6E
:104F900000981CBDFFFF0000FC00002070B58EB023
:104FA00005460E46342101A8FDF750FD07A30AA2CD
:104FB0000BA101A8FFF7BAFE01A8FDF766FD84B2B8
:104FC000214601A800F0E4F80EB070BD53544D33F3
:104FD000324730373152420056302E303100000017
:104FE0006765745F6465766963655F76657273692A
:104FF0006F6E3D257320282573290D0A00000000DF
:1050000010B500F013F80649086000F00BF80446EC
:105010000348214602680830FDF7FFFC10BD000080
:105020000C020020004870478C01002001480088D5
:105030007047000016000020F0B58DB006460F4600
:1050400034216846FDF702FD13A16846FFF76EFEA6
:105050006846FDF71AFD84B22146684600F098F8CC
:10506000002414E034216846FDF7F0FCE0000D490F
:105070000A580DA16846FFF759FE6846FDF705FD81
:1050800085B22946684600F083F8601CC4B2032C40
:10509000E8D30DB0F0BD0000636D64206C697374DB
:1050A0003A0D0A001C00002025730D0A00000000C4
:1050B00072B600BF00BF00BF00BF00BFBFF34F8F7D
:1050C00000BF00BF00BF07480749C86000BF00BF5E
:1050D00000BFBFF34F8F00BF00BF00BF00BF00BFC6
:1050E000FDE700000400FA0500ED00E00024FFF7F2
:1050F000EAFE0CA0FFF70AFE12E00A20FDF796FD7B
:10510000601C84B205212046FDF706FC002901D170
:1051100000F05AF8642C03DB002406A0FFF7F6FD2C
:10512000EBE700000D0A20656E74657220617070F7
:10513000200D0A006170702E2E2E0D0A0000000056
:1051400070B504460D46FFF7B3FF70BD70B500247F
:1051500015E0E0000C4A11580C48FDF782FC0546AA
:10516000002D0AD009480838008881B2E000064BBB
:10517000C01842680548904770BD601CC4B2032C3B
:10518000E7D300BFF8E700001C0000201402002055
:1051900070B505460C46224629460648FDF73DFCFB
:1051A00004483A384460808881B20248FFF7C6FE5E
:1051B00070BD00004602002010B5FFF721FFFFF789
:1051C000C5FFFFF7C9FE10BD10B5FFF72FFF04465E
:1051D000002C07D004480088844201D1FFF7ECFF7F
:1051E0000148048010BD000034000020081C304439
:1051F000586C8000010002000400060008000A004C
:105200000C0010002000400080000001081C304409
:10521000586C80000000000000000000000000004A
:10522000000000000000000000000000000000007E
:105230000000000001000000020000000300000068
:105240000400000006000000070000000800000045
:105250000900000000000000000000000000000045
:105260000000000001000000020000000300000038
:10527000040000006765745F6465766963655F7646
:10528000657273696F6E000068656C7000000000E5
:105290007265626F6F740000B85200080000002051
:1052A00038000000CC4D0008F05200083800002003
:1052B00040060000DC4D0008000000000400000073
:1052C000010000000024F4000000000000000000C5
:1052D0000000000088520008395000089052000871
:1052E00041510008745200089D4F00080000000062
:04000005080028BD0A
:00000001FF
