:020000040800F2
:10000000801900204D010008FD070008FD040008CC
:10001000FB07000831020008410A00080000000048
:10002000000000000000000000000000E9080008D7
:10003000330200080000000031080008EB08000847
:1000400067010008670100086701000867010008F0
:1000500067010008670100086701000867010008E0
:1000600067010008670100086701000867010008D0
:1000700067010008670100086701000867010008C0
:1000800067010008670100086701000867010008B0
:1000900067010008670100086701000867010008A0
:1000A0006701000867010008670100086701000890
:1000B0006701000867010008670100086701000880
:1000C0006701000867010008670100086701000870
:1000D0006701000895090008ED090008670100089C
:1000E0006701000867010008670100086701000850
:1000F0006701000867010008670100086701000840
:10010000670100086701000867010008670100082F
:10011000670100086701000867010008670100081F
:10012000670100086701000867010008670100080F
:10013000DFF80CD000F06AF800480047C91000084A
:100140008019002080F30888704700000648804727
:1001500006480047FEE7FEE7FEE7FEE7FEE7FEE7AC
:10016000FEE7FEE7FEE7FEE791090008310100081F
:10017000202A04DB203A21FA02F00021704721FAFC
:1001800002F3D040C2F12002914008431946704763
:1001900040EA01039B0703D009E008C9121F08C009
:1001A000042AFAD203E011F8013B00F8013B521E89
:1001B000F9D27047D2B201E000F8012B491EFBD200
:1001C00070470022F6E710B513460A460446194662
:1001D000FFF7F0FF204610BD30B505462A460B4616
:1001E00012F8010B13F8014B08B1A042F8D01CB172
:1001F000002802D06D1CF1E7284630BD421C10F8E3
:10020000011B0029FBD1801A70470000064C074DE6
:1002100006E0E06840F0010394E8070098471034D6
:10022000AC42F6D3FFF788FF54120008741200089E
:10023000FEE7704706490020C8610648016941F0A1
:1002400004010161016941F0400101617047000052
:100250001800002000200240064A0021D161064912
:100260000A6942F002020A614861086940F04000F0
:10027000086170471800002000200240044B002253
:10028000DA61044A136943F0010313610180704786
:10029000180000200020024014480022C168CB064C
:1002A000134904D5CA6942F00202CA611022C36828
:1002B0005B0705D5CB6943F00103CB6142F0040233
:1002C000C369DB0707D0CB6943F00403CB61C16985
:1002D00021F00101C161A2F58071013901D0C26034
:1002E0007047C16921F00101C161704700200240DF
:1002F0001800002070B5054600F0E0F80646114CE5
:1003000009E0681C07D025B100F0D8F8801BA8428E
:1003100001D9032070BDE068C007F2D1E068800613
:1003200001D52020E060E068C00605D4E069C00780
:1003300002D1E068400703D5FFF7AEFF012070BD92
:10034000002070BD002002404FF0E020016921F044
:1003500002010161704700002DE9F047054626487B
:100360000F460126017E01290FD001218146017629
:100370002868DFF888804CF25034022808D0A24662
:100380002046FFF7B7FFA8B131E00220BDE8F087B3
:100390002046FFF7AFFF08BB0120FFF74BFF2046C9
:1003A000FFF7A8FFD8F81010064621F00401C8F89E
:1003B00010101CE04FF0FF303860AC6811E02046B0
:1003C000FFF74AFF5046FFF795FFD8F810100600D8
:1003D00021F00201C8F8101001D03C6007E004F5DC
:1003E0000064D5E9020100EBC120A042E7D800215A
:1003F00089F818103046C9E7180000200020024094
:100400000348016941F0800101610020704700004C
:10041000002002402DE9F05F07461C488846002472
:10042000017E15461E46012909D00121814601762B
:100430004CF2503A5046FFF75DFF18B122E002201F
:10044000BDE8F09F012F02D0022F00D00427D34631
:10045000DFF83CA0220128463146FFF789FE81B231
:1004600008EB4400FFF70AFF5846FFF743FFDAF8AE
:10047000102022F00102CAF8102018B9641CE4B25E
:10048000BC42E7D3002289F81820D9E718000020E1
:1004900000200240064900200A69120607D5054AD5
:1004A0004A60054A4A600969090600D5012070477B
:1004B0000020024023016745AB89EFCD0148006869
:1004C000704700000400002002480168491C0160D8
:1004D000704700000400002007484FF47A71B0FB19
:1004E000F1F14FF0E020491E4161002181610521B9
:1004F00001610721016170470024F400FEE700005C
:1005000002490A6902430A61704700000010024074
:1005100002490A6982430A617047000000100240E4
:10052000044908B58A6902438A61896901400091DA
:1005300008BD000000100240F0B50A68C2F30F25A4
:1005400095FAA5F2B2FA82F369E001229A402A42B2
:1005500064D0082B03D240F201129A4006E0A3F1C6
:1005600008024FF00114944044F080624C68082C5B
:100570000BD10C69C668170A97FAA7F7B7FA87F77D
:1005800026EA1226BC402643C66092FAA2F700EB88
:100590001264B7FA87F74FEA870C0F27266807FA25
:1005A0000CF7BE4392FAA2F7D1F804E0B7FA87F746
:1005B000BF000EFA07FE46EA0E0626604F68012FBE
:1005C00001D0092F2AD192FAA2F7B7FA87F74FEA9A
:1005D000870C032707FA0CF7BE4392FAA2F7B7FA83
:1005E00087F7D1F808E0BF000EFA07FE92FAA2FCE6
:1005F00046EA0E06BCFA8CFC4FEA8C0E4FF0040C57
:1006000026600CFA0EFC92FAA2F2B2FA82F2CF68DD
:10061000920026EA0C0697403E4326605B1C35FAA2
:1006200003F292D10020F0BD4FF47A71B0FBF1F1EA
:100630004FF0E020491E41610021816105210161E7
:10064000704700B5034600F01FF9186000F0F2F89B
:10065000586000F0FDF89860586800F007F9D8601D
:1006600000BD00000149086070470000080000203C
:1006700070B517490024884209D11648C16841F471
:100680008041C160C16821F48041C1601EE012490F
:10069000884202D14FF4003510E01049884202D15F
:1006A0004FF480250AE00E49884202D14FF400251C
:1006B00004E00C49884208D14FF480152846FFF722
:1006C0001FFF2846FFF724FF00E00124204670BDED
:1006D0000038014000100240004400400048004043
:1006E000004C0040005000402DE9FF410446C06826
:1006F0000D460126C0F34030002861D1E9686868E2
:10070000E2680843296941F20C639A4311430843A4
:10071000E060A868216921F44051014321616869C2
:10072000616921F44071014361616846FFF789FF07
:100730002548844201D103980CE02448844208D023
:100740002348844205D02348844202D02248844270
:1007500036D10298A0B32A6892B300EBC00101EB36
:1007600000119200B1FBF2F36420B3FBF0F36FF0E1
:1007700018077B43B1FBF2F5B1FBF2F705EB8305FC
:10078000322303EB0515B5FBF0F5B7FBF0F705F0E9
:10079000F00505EB0715B1FBF2F7B1FBF2F1B1FB88
:1007A000F0F100266FF01802514307EB810103EBD3
:1007B0000111B1FBF0F000F00F00284480B2A060FE
:1007C00004B03046BDE8F0810038014000440040EC
:1007D00000480040004C00400050004008B54FF079
:1007E000E0210A690092421C00D0401C0A69D20331
:1007F00000D5401E0028F9D108BDFEE7FEE730B560
:1008000000F00703C3F10704042C00D90424181DC9
:10081000072801D2002300E0DB1E012505FA04F0C1
:10082000401E084098409D406D1E1540284330BD35
:100830007047000004494968044A01F0F0010909C1
:10084000515CC84070470000001002403C12000894
:1008500004494968044A01F4E06102EB1121097876
:10086000C8407047001002404C1200080449496813
:10087000044A01F4605102EBD1210978C840704765
:10088000001002404C1200080648406810F00C01AD
:10089000054805D0042903D0082901D100F006B885
:1008A000704700000010024000127A000B484168B7
:1008B00011F480320A4909D0B2F5803F06D141686F
:1008C000084AC1F34041491CB2FBF1F140680222E1
:1008D00000F4701002EB9040484370470010024053
:1008E00000093D0000127A007047FFF7EDBD0000DF
:1008F000244810B5016821F007010160016811F07A
:10090000070FFBD12048016821F0F80141F0800178
:100910000160016841F0010101600168C1F340011B
:100920000029FAD0416821F47C1141F40021416092
:10093000016841F0807101600168C1F340610029E4
:10094000FAD0416821F0F0014160416821F4E06192
:100950004160416821F460514160416821F0030128
:1009600041F002014160416801F00C010829FAD10F
:10097000064C2046FFF758FE2046BDE81040FFF722
:1009800071BE000000200240001002400024F4006C
:100990007047000038B5124C2068C0F3401090B189
:1009A000E068C0F3401070B160680F490D4B0A88D1
:1009B0009854521C90B240F698020880904201D39D
:1009C0000020088038BD252000F03BF8206800900A
:1009D0004007F7D5206800906068009038BD00009F
:1009E00000380140380000200C00002038B5114CC0
:1009F0002068C0F3401080B1E068C0F3401060B1DF
:100A000060680E490C4B4A889854521C90B248803A
:100A1000322801D30020488038BD262000F011F88C
:100A2000206800904007F7D520680090606800902B
:100A300038BD000000440040D00800200C00002019
:100A4000FEE700280DDB00F01F0201219140400964
:100A5000800000F1E020C0F88011BFF34F8FBFF39A
:100A60006F8F7047002809DB00F01F0201219140C1
:100A70004009800000F1E020C0F80011704709072C
:100A8000090E002804DB00F1E02080F80014704714
:100A900000F00F0000F1E02080F8141D704702E024
:100AA00008C8121F08C1002AFAD1704770470020F9
:100AB00001E001C1121F002AFBD1704704484068C1
:100AC000B0F1AA3F01D0012070470020704700001C
:100AD0000409002070B5074D0024601900F094F956
:100AE000FF2801D0012070BD641CE4B2202CF4D397
:100AF000002070BD0038000804484068B0F1553F40
:100B000001D0002070470120704700000409002038
:100B100010B540F698010348FFF753FB0249002047
:100B2000088010BD380000200C00002010B5FB210B
:100B3000034800F050F9BDE81040002000F00CB868
:100B40000028000800487047002800080148008875
:100B5000704700000C0000200549012804D04FF028
:100B6000AA30486000F044B84FF05530F9E7000073
:100B700004090020004870473800002000F004BA43
:100B80002DE9F04114000F464FF0000506461AD03B
:100B9000A00715D022F00304241D11E007EB850007
:100BA00017F82510427841EA02218278C07841EA9C
:100BB000024141EA0061304600F028F96D1C361D03
:100BC000B5EB940FEAD3BDE8F081000070B5064D97
:100BD000064E0024601900F017F93055641CA4B2C9
:100BE000102CF7D370BD0000001800080409002085
:100BF0000148012100F0EFB8001800081FB50446B5
:100C000000200CA2009001900290039007CA8DE88A
:100C100007006846FFF7F2FA80B2220A0DF80020BA
:100C2000401C80B20DF80040401C81B2684600F0C4
:100C300095F81FBD726571756573745F6461746149
:100C4000000000001FB504460020009001900290B3
:100C5000039009A00088ADF8000074208DF8020010
:100C60006846FFF7CBFA81B268460DF80140491C8F
:100C700089B200F073F81FBD726574001FB50020C3
:100C8000009001900290039006A001680091808876
:100C9000ADF804006846FFF7B1FA81B2684600F08B
:100CA0005DF81FBD75706461746500002DE9F04149
:100CB000234D0646284629788088224C022915D0E3
:100CC000052203291FD004291BD12A70FFF73AFF00
:100CD000A96800F093F9E96881422BD10120FFF760
:100CE000B1FFBDE8F0410120FFF736BF0321401CF2
:100CF000297080B2FFF782FFA88860802088304486
:100D00002080BDE8F081678800210223B84201D02D
:100D10002B7021802088304480B22080B0F5FA7F8B
:100D200004D3287C401C287421802B70287C052843
:100D3000E7D92A70BDE8F0410020FFF783BF00002B
:100D4000140900201400002010B5FFF797FF024996
:100D50000120087010BD00001409002070B50C4679
:100D60000A46014605480546FFF712FA044821469F
:100D700044602846BDE87040FFF700BF62110020C4
:100D80002809002010B5FFF7E1FE0D4C2060FFF7A9
:100D9000F1FE014604F1080022680446FFF7F8F965
:100DA00000F0B6F940F632012046FFF70AFA1E219C
:100DB0000448FFF706FABDE81040FFF7A9BE00009F
:100DC000280900206211002010B500F069F8BDE884
:100DD0001040FFF7B9BA70B586B000260C4605463C
:100DE0000496FFF757FBCDE9025404A96846009624
:100DF000FFF7B2FA20B1FFF703FB002006B070BD89
:100E0000FFF7FEFA0120F9E70078704770B50C464D
:100E10000546FFF73FFB2246002329460220FFF745
:100E2000F9FA18B1FFF7ECFA002070BDFFF7E8FA05
:100E3000012070BD164808B5816941F0010181614A
:100E4000816901F001010091C16941F08051C161E6
:100E5000C069104900F08050009008684FF6FF020A
:100E600010400D4A40F44070104308600B48416840
:100E700021F0E0614160416841F000714160FFF79D
:100E800037FDFFF729FBBDE8084000F015B800006A
:100E9000001002400CED00E00000FA0500000140E7
:100EA00010B52520FFF7CDFDBDE810400148FFF744
:100EB000DFBB00000038014030B58DB01C21684612
:100EC000FFF77FF9142107A8FFF77BF94FF4804063
:100ED000FFF726FB0420FFF723FB26480790092095
:100EE000089003200024CDE90904234D07A92846D2
:100EF000FFF722FB214807900420089007A9284605
:100F0000FFF71AFB1E4800680022C0F302201146BA
:100F1000FFF775FC01462520FFF7B1FD2520FFF7FF
:100F2000A1FD4FF4E130CDE900040C200294CDE99D
:100F3000034005940694134C69462046FFF7D4FB02
:100F4000206920F490402061606920F02A006061EF
:100F5000E06840F40050E06020680C9060680C90FD
:100F6000E06840F02000E060606940F001006061EE
:100F70000DB030BD0200020400080140040004046A
:100F80000CED00E00038014010B50022094B09E0EB
:100F90001C68C4F3C014002CFAD010F8014B5C603C
:100FA000521C92B28A42F3D31868C0F38010002812
:100FB000FAD010BD0038014070B50E4C00250E4E21
:100FC000207806280CD0052812D1FFF795FD70B1C6
:100FD000FFF7FAFE72B63046BDE8704000F03CB84C
:100FE000FFF76CFD18B1FFF775FD0028F0D12570F3
:100FF00070BD0000140900200028000810B54FF053
:10100000FF32074B08E000BF10F8014B5440E4B238
:1010100053F8244084EA1222491EF5D2D04310BD71
:101020008011002030B50A4B0A4C002108460022EE
:10103000C50702D083EA500000E04008521C082A8D
:10104000F6D344F82100491CFF29EFD930BD000038
:101050002083B8ED8011002010B50168074A1140C7
:10106000B1F1005F09D14168054C21600068FFF7CC
:1010700069F82068BDE81040004710BD0000FE2F51
:101080001000002072B6BFF34F8F05480168054A73
:1010900001F4E06111430160BFF34F8F00BFFDE732
:1010A0000CED00E00400FA0570B5FFF74FFD0400F9
:1010B00006D0044D2888844201D1FFF763FE2C80BE
:1010C00070BD00000000002000252C46FFF7B2FE96
:1010D000FFF77CFDFFF738FE0C4E06271420FFF7C4
:1010E0007DFBFFF7E1FF1420FFF7E0FD641CA4B2D5
:1010F000FA2C00D300243078012804D16D1CADB245
:101100001E2D00D33770FFF757FFE7E714090020C3
:1011100010B5254822A10446FFF75EF818B1BDE8D6
:101120001040FFF7AFBF21A12046FFF755F8B8B137
:10113000C17A827A00F1100401EB02218BB2C168FE
:10114000C27B09BA006921F0FF01114300BA20F007
:10115000FF02E078BDE810400243184600F030B8C6
:1011600015A12046FFF738F8002817D041790279F9
:10117000837A01EB02218CB2D0F80610427A09BAC8
:1011800021F0FF011143C27A02EB032200F10C03AC
:101190002046BDE8104092B200F022B810BD000019
:1011A0007265626F6F7400003009002075706461B1
:1011B00074655F61636B000064617461000000002E
:1011C000064B10B55880C3E9021202201870FFF7D1
:1011D000ADFCBDE81040FFF725BF0000140900205A
:1011E0002DE9F041134C05460F46A0881E46401CD1
:1011F0009046A84208D111461846FFF7FFFEB842B4
:1012000004D0207C401C2074BDE8F08100202074B4
:101210000948424600EBC5203146FFF7B1FCA088E3
:10122000401C80B2A08061888842EDD304202070E9
:10123000EAE7000014090020002000080000000078
:101240000000000001020304060708090000000076
:1012500001020304741200080000002018000000BE
:101260009E0A00088C12000818000020681900006F
:10127000AE0A000800000000000000000024F40096
:0C12800000000000000000000000000062
:0400000508000131BD
:00000001FF
