:020000040800F2
:1000000080190020DD000008FD0600083504000806
:1000100000000000000000000000000000000000E0
:10002000000000000000000000000000BD07000804
:100030000000000000000000FF060008BF070008E5
:10004000EF00000800000000EF000008EF000008CB
:10005000EF000008EF000008EF000008EF000008C4
:1000600000000000EF000008EF000008EF000008AB
:10007000EF000008EF000008EF000008000000009B
:10008000EF0000080000000000000000EF00000882
:1000900000000000EF000008EF000008EF0000087B
:1000A000EF000008EF000008EF000008D907000883
:1000B0002D08000800000000000000000000000003
:1000C0000348854600F078F800480047CD0F000847
:1000D0008019002080F3088870470000044880479A
:1000E00004480047FEE7FEE7FEE7FEE7FEE7FEE71F
:1000F000C9070008C100000830B50B4601460020C2
:100100002022012409E00D46D5409D4205D31D461D
:100110009540491B2546954040191546521E002D15
:10012000F1DC30BD03460B439B0703D009E008C94F
:10013000121F08C0042AFAD203E00B780370401C97
:10014000491C521EF9D27047D2B201E00270401C25
:10015000491EFBD270470022F6E710B513460A4647
:1001600004461946FFF7F0FF204610BD30B505469E
:100170002A460B4610781C78521C5B1C002801D0C4
:10018000A042F7D0002C03D0002802D06D1CEFE76E
:10019000284630BD421C0178401C0029FBD1801A42
:1001A00070470321001D401E037812021A43491EA6
:1001B000F9D5104670470000064C0125064E05E0B3
:1001C000E36807CC2B430C3C98471034B442F7D378
:1001D000FFF77AFFD0110008F011000803494A69BF
:1001E00001231B04184302434A6170470020024068
:1001F000044A5069F8239843C90001430248014367
:1002000051617047002002400200010030B50549ED
:100210004C6901252C434C610260BFF36F8F436032
:1002200030BD00000020024030B50B4C0023626955
:100230000125AD042A436261EFF3108272B620C932
:100240005B1C20C0DBB2402BF9D32069C003FCD477
:1002500082F3108830BD000000200240F8B505464A
:1002600000F0CCF8471901263604114C03E000F0E9
:10027000C5F8B84214D220693042F8D121690D483E
:1002800001400D48206103D00C4841600120F8BDB9
:1002900000F0B4F8451905E000F0B0F8A84201D329
:1002A0000320F8BD20694003F6D40020F8BD00000B
:1002B00000200240FA830000FB83000018000020A9
:1002C00002480169022291430161704700E000E0A9
:1002D000F8B51F4E044630780F4601280AD0012099
:1002E0003070002070607D20C000FFF7B7FF00284D
:1002F00002D029E00220F8BD042161602268042AAE
:1003000003D0491F3960A56814E00846FFF766FF6F
:100310007D20C000FFF7A2FF16E029466068FFF7C6
:1003200067FF7D20C000FFF799FF002801D03D60E6
:1003300005E06D1CE268A1688918A942EDD805495D
:100340004A6902239A434A6100213170F8BD0000D6
:100350001800002000200240054901204A69C30717
:100360001A434A614969002900DA002070470000F9
:1003700000200240F0B51FB4144C06462078154604
:1003800001280AD00120207000277D20C00067606E
:10039000FFF764FF002803D010E0022005B0F0BD95
:1003A000012E0DD029460198FFF73EFF7D20C000A9
:1003B000FFF754FF06494A69B2434A612770EDE7E7
:1003C0002A46039B0198FFF721FFEFE71800002062
:1003D00000200240064900204A69002A07DA054A3F
:1003E0008A60054A8A604969002900DA012070475D
:1003F0000020024023016745AB89EFCD014800682A
:10040000704700000400002002480168491C016098
:1004100070470000040000200548044941610021A4
:100420008161052101610721016170477F3E000064
:1004300000E000E0FEE7F0B500244CE00123A3401B
:100440001A4047D04B68012B01D0022B0FD18E6888
:100450008568134653435F00DF19BD4373431D4353
:100460008560CB684568534395431D4345600F69DC
:10047000C668134653435D005D19AE435F433E4378
:10048000C6604E68022E1FD1FF2A0ED817464A6951
:10049000066A94461A467A437A431701BF1ABE4346
:1004A00067467A43164306620EE0160A32467243E6
:1004B0004F6972437243BC461601B71A466ABE437F
:1004C00067467A43164346624A6806685343AE431A
:1004D0001E430660641C0A681346E340AED1002048
:1004E000F0BD000008B504494A6B02434A63496BFA
:1004F0000140009108BD00000010024010B57D21B0
:10050000C900FFF7F9FD0449401E486100208861D9
:100510000520086110BD000000E000E010B50446B1
:1005200000F00EF9206000F0EBF8606000F0F8F8E1
:10053000A06010BD014610B50020032913D1134A55
:10054000516903238907890F1B041943DB43C91829
:100550000AD001290BD0022911D000F0F1F800F0E7
:10056000CFF800F0DDF810BD00F0EAF810BD074943
:10057000403909684905C90FF8D0054810BDD1694F
:100580008907C90FFAD00120C00310BD40100240F6
:100590000024F400014908607047000008000020B2
:1005A00041680922D2029143416081682A22914325
:1005B0008160704702460E4B00200E499A4208D1D6
:1005C00001220B6B920313430B630B6B93430B637F
:1005D0007047094B9A4208D10122CB6A5204134357
:1005E000CB62CB6A9343CB62704701207047000017
:1005F000003801400010024000440040FEB50446AF
:1006000000680D46012738405CD12969A868EA696D
:10061000084369691143084321682B4A1140084384
:100620002060E96860680322120390430843606019
:10063000A969A068121190430843A060234884422E
:1006400003D10320FFF776FF06E02148844232D130
:100650006846FFF763FF029800282CD06E68002ED2
:1006600029D029680027EA690B2924D80123DB0354
:100670009A4213D109068A0D16498958FFF73CFDA5
:100680004000710840183146FFF736FD81B212482C
:1006900008400907490F0143E1600CE009068A0D93
:1006A0000C498958FFF728FD710840183146FFF7BB
:1006B00023FD80B2E0602888E16A80B2090909015F
:1006C0000143E1623846FEBDF369FFEF00380140A7
:1006D0000044004040110008F0FF000008B5064942
:1006E0000A690092421C00D0401C0A69D20300D55E
:1006F000401E0028F9D108BD00E000E0FEE7704789
:10070000054989688A093C210A400A400349895CF5
:10071000C906C90EC8407047001002407011000899
:1007200005498968054A4904490F8900515CC90691
:10073000C90EC8407047000000100240B011000808
:1007400010B50B4988683822104008280AD01028B4
:100750000AD0086801218004400F81400548FFF756
:10076000CBFC10BD044810BD00F008F810BD00001F
:10077000001002400024F40000127A0010B50D4A67
:10078000D0680D498007800F022802D0032800D1CD
:100790004910D068440FD0684006430FD068641CED
:1007A0004004400E4843591CFFF7A6FC2146FFF7C2
:1007B000A3FC10BD001002400024F400704700B5F7
:1007C000FFF722FE00BD000001200249C00688603C
:1007D0007047000000ED00E038B5104CE06980067D
:1007E000C00F11D020688006C00F0DD0606A0D497F
:1007F0000B4B0A889854521C90B20B4A08809042C6
:1008000001D30020088038BD1B2000F037F8E069D4
:1008100000904007F7D50420206238BD0038014021
:10082000340000200C0000209808000038B5104C5F
:10083000E0698006C00F10D020688006C00F0CD081
:10084000606A0D490B4B4A889854521C90B24880FC
:10085000322801D30020488038BD1C2000F00EF85B
:10086000E06900904007F7D50420206238BD000001
:1008700000440040CC0800200C000020002809DBC8
:10088000C106C90E0120884003490860BFF34F8F9D
:10089000BFF36F8F7047000080E100E0002805DBA8
:1008A000C106C90E01208840014908607047000058
:1008B00000E100E08307FF22DB0E9A408907090E62
:1008C0009940002808DB830809489B001B1818681A
:1008D00090430843186070470007000F08388308EA
:1008E00004489B001B18D86990430843D86170479F
:1008F00000E400E000ED00E002E008C8121F08C1BB
:10090000002AFAD170477047002001E001C1121F90
:10091000002AFBD17047000004480549406888421E
:1009200001D001207047002070470000000900201E
:10093000AAAAAAAA70B5074D0024601900F0C4F94C
:10094000FF2801D0012070BD641CE4B2202CF4D338
:10095000002070BD003800080448054940688842FE
:1009600001D10120704700207047000000090020DD
:100970005555555510B504490448FFF7ECFB04499B
:100980000020088010BD00009808000034000020FE
:100990000C00002010B51B21034800F077F900205F
:1009A00000F00EF810BD0000002800080048704755
:1009B0000028000801480088704700000C00002053
:1009C00010B50549012804D00448486000F050F8EB
:1009D00010BD0248C043F8E700090020AAAAAAAA4D
:1009E000004870473400002010B500F053FA10BDE5
:1009F000F8B500240E460546002A26D0500702D03E
:100A0000D208D2000832D7081DE0E000315C82191C
:100A1000507853790002084391781B02090401437E
:100A2000D0780006084311790B439179D2790904F3
:100A3000194313060B4300210A184B41284600F0C6
:100A400045F9641C0835A742DFD8F8BD70B5064DDE
:100A5000064E0024601900F037F93055641CA4B22A
:100A6000102CF7D370BD000000180008000900200A
:100A7000F8B51148002426460546012100F006F984
:100A8000F60816E00D48E200815C1218507800026A
:100A9000C317084391780904CF170143D0781F4347
:100AA0000206D3170A433B43284600F00FF9641CA3
:100AB0000835A642E6D8F8BD001800080009002055
:100AC0001FB5044600200090019002900AA20390F6
:100AD00007CA6B4607C36846FFF75CFB80B2220A71
:100AE00069460A54401C80B20C54401C81B26846CE
:100AF00000F090F81FBD0000726571756573745F3A
:100B000064617461000000001FB50446002000907D
:100B1000019002900390032207A16846FFF702FBB1
:100B20006846FFF737FB81B268464454491C89B2D6
:100B300000F070F81FBD0000726574001FB5002042
:100B40000090019002900390062206A16846FFF7EC
:100B5000E9FA6846FFF71EFB81B2684600F05AF8D2
:100B60001FBD00007570646174650000F8B5224D0A
:100B700006462A7828468088204C022A14D005216F
:100B8000032A1DD0042A0ED12970FFF70FFFA96890
:100B900000F0BAF9E96881422AD10120FFF7B4FFD9
:100BA0000120FFF70DFFF8BD0321401C297080B222
:100BB000FFF786FFA8886080208880192080F8BD14
:100BC000678800220223B84201D02B70228020883F
:100BD000801980B2FF26F5362080B04204D3287CED
:100BE000401C287422802B70287C0528E7D92970A6
:100BF0000020FFF789FFF8BD100900201400002035
:100C000010B5FFF79BFF02490120087010BD0000DE
:100C10001009002070B50C460A46014605480546F5
:100C2000FFF780FA0448214644602846FFF7DCFEBF
:100C300070BD00005E1100202409002010B5FFF7F0
:100C4000B9FE0C4C2060FFF7CBFE01462046083071
:100C500022680446FFF766FA00F0DCF906492046F0
:100C6000FFF779FA1E210548FFF775FAFFF782FEB4
:100C700010BD000024090020320800005E11002091
:100C800010B500F089F8FFF71BFB10BD30B50D461D
:100C900085B0002104911F21C9064018C40AFFF73E
:100CA00099FB0220009004A9039502946846FFF77F
:100CB0000FFB002804D0FFF74FFB002005B030BD2C
:100CC000FFF74AFB0120F9E70078704770B5164638
:100CD0001C460546FFF77EFB324623462946012087
:100CE000FFF748FB002803D0FFF736FB002070BD5C
:100CF000FFF732FB012070BD38B50F4801210268B3
:100D00000A43026000680C4C084000900807403C11
:100D1000E16B0143E163E16B0140009100F00EF8EB
:100D2000FFF77AFB616B202001436163616B014037
:100D3000009100F03BF838BD4010024010B5144857
:100D4000016882151143016001684905C90FFBD094
:100D500081680F221202914381608168C908C9002D
:100D60008160382281681142FCD181680722120318
:100D700091438160074C2046FFF7C0FB2046FFF7F8
:100D800009FC03484030416989088900416110BD70
:100D9000001002400024F40010B51B20FFF76EFD88
:100DA0000148FFF707FC10BD00380140F0B58FB0D7
:100DB000202106A8FFF7CFF918216846FFF7CBF9E5
:100DC00031480121026889030A4302600068084033
:100DD0000E900220FFF786FB002440202B4F059445
:100DE0000226012500900294039469460196049519
:100DF0003846FFF720FB802005940090029403946E
:100E00006946019604953846FFF715FB00211B2023
:100E1000FFF750FD1B20FFF741FDE1204002079046
:100E20000894069409940A940C940D940C20184C80
:100E30000B9006A92046FFF7E1FBA068C000C008A0
:100E4000A060A068072149068843A0602068690760
:100E5000884320602046FFF7A3FB206828432060DA
:100E6000E0698002C00FFBD0E0694002C00FF7D0FC
:100E7000082020622068202108432060A0682843C1
:100E8000A0600FB0F0BD0000401002400004005010
:100E90000038014010B50022084B08E0DC69240648
:100EA000E40FFBD004789C62521C92B2401C8A4230
:100EB000F4D3D8694006C00FFBD010BD0038014004
:100EC00070B50F4C002520780E4E062806D0052858
:100ED00012D1FFF741FD00280FD007E0FFF71CFDFE
:100EE00000280AD0FFF726FD002806D0FFF7C8FE2D
:100EF00072B6304600F036F870BD257070BD000047
:100F0000100900200028000810B50022D243074B2A
:100F100007E0047854402406A40D1C59120A6240CC
:100F2000401C491EF5D2D04310BD00007C110020AA
:100F300030B50A4B0A4C002108460022C50702D0F2
:100F40004008584000E04008521C082AF6D38A00A6
:100F5000491CA050FF29EFD930BD00002083B8ED17
:100F60007C11002010B50168074A11400122520788
:100F7000914207D14168054C21600068FFF7AAF84B
:100F80002068804710BD00000000FE2F10000020E8
:100F900072B6BFF34F8F04490248C860BFF34F8F4A
:100FA00000BFFDE70400FA0500ED00E070B5FFF7B3
:100FB00001FD040006D0044D2888844201D1FFF7CA
:100FC0003DFE2C8070BD00000000002000252C4656
:100FD000FFF792FEFFF73AFDFFF712FE0C4E0627D1
:100FE0001420FFF77BFBFFF7E1FF1420FFF7BEFDA6
:100FF000641CA4B2FA2C00D300243078012804D158
:101000006D1CADB21E2D00D33770FFF759FFE7E717
:1010100010090020F8B5274824A10546FFF7A6F8D7
:10102000002802D0FFF7B4FFF8BD23A12846FFF740
:101030009DF804001CD0A07AE17A0002401885B225
:1010400020460C300746FFF7ACF800BA060AF878DD
:101050003602064310342046FFF7A3F800BA020A0E
:10106000E078120202433146284600F02FF8F8BD1E
:1010700014A12846FFF77AF80400F8D020796179A6
:101080000002401885B2A01DFFF78BF800BA010AD4
:10109000607A09020143A07AE27A0002801882B2E3
:1010A00023460C33284600F01FF8F8BD7265626FC6
:1010B0006F7400002C0900207570646174655F61B5
:1010C000636B0000646174610000000010B5054BA3
:1010D0005880DA60022099601870FFF75BFCFFF718
:1010E00027FF10BD10090020FFB5134C0546A0884E
:1010F00081B0401C1E460F46A84208D118460399ED
:10110000FFF702FFB84204D0207C401C207405B0D9
:10111000F0BD002020740949E80240183146039AC6
:10112000FFF766FCA088401C80B2A08061888842DE
:10113000EDD304202070EAE7100900200020000809
:101140000100000002000000040000000600000092
:10115000080000000A0000000C0000001000000061
:10116000200000004000000080000000000100009E
:10117000000000000000000000000000000000006F
:10118000000000000000000000000000000000005F
:101190000100000002000000030000000400000045
:1011A0000600000007000000080000000900000021
:1011B000000000000000000000000000000000002F
:1011C0000100000002000000030000000400000015
:1011D000F01100080000002018000000F8080008C6
:1011E000081200081800002068190000080900080B
:1011F00000000000000000000024F40000000000D7
:081200000000000000000000E6
:04000005080000C12E
:00000001FF
